{"contracts/PostFactory.sol":{"PostFactory":{"abi":[{"inputs":[{"internalType":"address","name":"_agentRegistry","type":"address"},{"internalType":"address","name":"_treasury","type":"address"},{"internalType":"address","name":"_usdcAddress","type":"address"},{"internalType":"address","name":"_backend","type":"address"}],"stateMutability":"nonpayable","type":"constructor"},{"anonymous":false,"inputs":[{"indexed":true,"internalType":"address","name":"agentWallet","type":"address"},{"indexed":true,"internalType":"address","name":"coinAddress","type":"address"},{"indexed":false,"internalType":"bytes32","name":"contentHash","type":"bytes32"},{"indexed":false,"internalType":"string","name":"ticker","type":"string"}],"name":"PostCreated","type":"event"},{"inputs":[],"name":"agentRegistry","outputs":[{"internalType":"contract AgentRegistry","name":"","type":"address"}],"stateMutability":"view","type":"function"},{"inputs":[{"internalType":"address","name":"","type":"address"},{"internalType":"uint256","name":"","type":"uint256"}],"name":"agentToPosts","outputs":[{"internalType":"address","name":"","type":"address"}],"stateMutability":"view","type":"function"},{"inputs":[{"internalType":"uint256","name":"","type":"uint256"}],"name":"allPosts","outputs":[{"internalType":"address","name":"","type":"address"}],"stateMutability":"view","type":"function"},{"inputs":[],"name":"backend","outputs":[{"internalType":"address","name":"","type":"address"}],"stateMutability":"view","type":"function"},{"inputs":[{"internalType":"bytes32","name":"","type":"bytes32"}],"name":"contentHashToCoin","outputs":[{"internalType":"address","name":"","type":"address"}],"stateMutability":"view","type":"function"},{"inputs":[{"internalType":"address","name":"agentWallet","type":"address"},{"internalType":"bytes32","name":"contentHash","type":"bytes32"},{"internalType":"string","name":"ticker","type":"string"}],"name":"createPost","outputs":[{"internalType":"address","name":"coinAddress","type":"address"}],"stateMutability":"nonpayable","type":"function"},{"inputs":[{"internalType":"address","name":"agent","type":"address"}],"name":"getAgentPosts","outputs":[{"internalType":"address[]","name":"","type":"address[]"}],"stateMutability":"view","type":"function"},{"inputs":[],"name":"getAllPosts","outputs":[{"internalType":"address[]","name":"","type":"address[]"}],"stateMutability":"view","type":"function"},{"inputs":[{"internalType":"bytes32","name":"contentHash","type":"bytes32"}],"name":"getCoinByHash","outputs":[{"internalType":"address","name":"","type":"address"}],"stateMutability":"view","type":"function"},{"inputs":[],"name":"getPostCount","outputs":[{"internalType":"uint256","name":"","type":"uint256"}],"stateMutability":"view","type":"function"},{"inputs":[{"internalType":"address","name":"_backend","type":"address"}],"name":"setBackend","outputs":[],"stateMutability":"nonpayable","type":"function"},{"inputs":[],"name":"treasury","outputs":[{"internalType":"address","name":"","type":"address"}],"stateMutability":"view","type":"function"},{"inputs":[],"name":"usdcAddress","outputs":[{"internalType":"address","name":"","type":"address"}],"stateMutability":"view","type":"function"}],"evm":{"bytecode":{"linkReferences":{},"object":"608060405234801561001057600080fd5b50604051611fbd380380611fbd83398101604081905261002f9161009e565b600080546001600160a01b039586166001600160a01b03199182161790915560018054948616948216949094179093556002805492851692841692909217909155600380549190931691161790556100f2565b80516001600160a01b038116811461009957600080fd5b919050565b600080600080608085870312156100b457600080fd5b6100bd85610082565b93506100cb60208601610082565b92506100d960408601610082565b91506100e760608601610082565b905092959194509250565b611ebc806101016000396000f3fe60806040523480156200001157600080fd5b5060043610620000e05760003560e01c806361d027b31162000097578063ae3e88ad116200006e578063ae3e88ad14620001dc578063bcc954071462000208578063c2fead6d146200021a578063da7fc24f146200023157600080fd5b806361d027b3146200019a578063718ce2bc14620001ae578063ac61795b14620001c557600080fd5b806302d4545714620000e5578063099e413314620001165780630d1cfcae146200012a5780631fd9cf74146200013e57806330561100146200016a5780633f09de4b1462000183575b600080fd5b600254620000f9906001600160a01b031681565b6040516001600160a01b0390911681526020015b60405180910390f35b600354620000f9906001600160a01b031681565b600054620000f9906001600160a01b031681565b620000f96200014f366004620006c7565b6004602052600090815260409020546001600160a01b031681565b620001746200024a565b6040516200010d9190620006e1565b620000f9620001943660046200074d565b620002ae565b600154620000f9906001600160a01b031681565b620000f9620001bf366004620006c7565b62000570565b62000174620001d6366004620007db565b6200059b565b620000f9620001ed366004620006c7565b6000908152600460205260409020546001600160a01b031690565b6006546040519081526020016200010d565b620000f96200022b36600462000800565b62000613565b6200024862000242366004620007db565b6200064c565b005b60606006805480602002602001604051908101604052809291908181526020018280548015620002a457602002820191906000526020600020905b81546001600160a01b0316815260019091019060200180831162000285575b5050505050905090565b6003546000906001600160a01b03163314620003005760405162461bcd60e51b815260206004820152600c60248201526b13db9b1e48189858dad95b9960a21b60448201526064015b60405180910390fd5b6000546040516305505cd760e31b81526001600160a01b03878116600483015290911690632a82e6b890602401602060405180830381865afa1580156200034b573d6000803e3d6000fd5b505050506040513d601f19601f820116820180604052508101906200037191906200082d565b620003b45760405162461bcd60e51b81526020600482015260126024820152711059d95b9d081b9bdd081d995c9a599a595960721b6044820152606401620002f7565b6000848152600460205260409020546001600160a01b031615620004145760405162461bcd60e51b815260206004820152601660248201527510dbdb9d195b9d08185b1c9958591e481c1bdcdd195960521b6044820152606401620002f7565b600254600154604051600092889288926001600160a01b03928316929091169062000446908990899060200162000851565b60405160208183030381529060405288886040516200046590620006b9565b6200047797969594939291906200089f565b604051809103906000f08015801562000494573d6000803e3d6000fd5b50600086815260046020908152604080832080546001600160a01b038087166001600160a01b031992831681179093558c168086526005855283862080546001818101835591885295872090950180548316841790556006805495860181559095527ff652222313e28459528d920b65115c16c04f3efc82aaedc97be59f3f377c0d3f9093018054909316811790925551929450849350917f8ced794f909dcf600c5d428b4a08789faf928a54801da5cbc5d03b34e019f8ae906200055f9089908990899062000938565b60405180910390a350949350505050565b600681815481106200058157600080fd5b6000918252602090912001546001600160a01b0316905081565b6001600160a01b0381166000908152600560209081526040918290208054835181840281018401909452808452606093928301828280156200060757602002820191906000526020600020905b81546001600160a01b03168152600190910190602001808311620005e8575b50505050509050919050565b600560205281600052604060002081815481106200063057600080fd5b6000918252602090912001546001600160a01b03169150829050565b6003546001600160a01b03163314620006975760405162461bcd60e51b815260206004820152600c60248201526b13db9b1e48189858dad95b9960a21b6044820152606401620002f7565b600380546001600160a01b0319166001600160a01b0392909216919091179055565b611529806200095e83390190565b600060208284031215620006da57600080fd5b5035919050565b6020808252825182820181905260009190848201906040850190845b81811015620007245783516001600160a01b031683529284019291840191600101620006fd565b50909695505050505050565b80356001600160a01b03811681146200074857600080fd5b919050565b600080600080606085870312156200076457600080fd5b6200076f8562000730565b935060208501359250604085013567ffffffffffffffff808211156200079457600080fd5b818701915087601f830112620007a957600080fd5b813581811115620007b957600080fd5b886020828501011115620007cc57600080fd5b95989497505060200194505050565b600060208284031215620007ee57600080fd5b620007f98262000730565b9392505050565b600080604083850312156200081457600080fd5b6200081f8362000730565b946020939093013593505050565b6000602082840312156200084057600080fd5b81518015158114620007f957600080fd5b68020b3b2b73a23349d160bd1b81528183600983013760009101600901908152919050565b81835281816020850137506000828201602090810191909152601f909101601f19169091010190565b6001600160a01b03888116825260208083018990528782166040840152908616606083015260c0608083018190528551908301819052600091825b82811015620008f85787810182015185820160e001528101620008da565b5050600060e08285010152601f19601f8201168301905060e08382030160a08401526200092a60e08201858762000876565b9a9950505050505050505050565b8381526040602082015260006200095460408301848662000876565b9594505050505056fe60806040523480156200001157600080fd5b506040516200152938038062001529833981016040819052620000349162000187565b81816003620000448382620002c3565b506004620000538282620002c3565b5050600580546001600160a01b03199081166001600160a01b03998a1617909155600696909655505060078054851693861693909317909255600880549093169316929092179055506200038f565b80516001600160a01b0381168114620000ba57600080fd5b919050565b634e487b7160e01b600052604160045260246000fd5b600082601f830112620000e757600080fd5b81516001600160401b0380821115620001045762000104620000bf565b604051601f8301601f19908116603f011681019082821181831017156200012f576200012f620000bf565b81604052838152602092508660208588010111156200014d57600080fd5b600091505b8382101562000171578582018301518183018401529082019062000152565b6000602085830101528094505050505092915050565b60008060008060008060c08789031215620001a157600080fd5b620001ac87620000a2565b955060208701519450620001c360408801620000a2565b9350620001d360608801620000a2565b60808801519093506001600160401b0380821115620001f157600080fd5b620001ff8a838b01620000d5565b935060a08901519150808211156200021657600080fd5b506200022589828a01620000d5565b9150509295509295509295565b600181811c908216806200024757607f821691505b6020821081036200026857634e487b7160e01b600052602260045260246000fd5b50919050565b601f821115620002be576000816000526020600020601f850160051c81016020861015620002995750805b601f850160051c820191505b81811015620002ba57828155600101620002a5565b5050505b505050565b81516001600160401b03811115620002df57620002df620000bf565b620002f781620002f0845462000232565b846200026e565b602080601f8311600181146200032f5760008415620003165750858301515b600019600386901b1c1916600185901b178555620002ba565b600085815260208120601f198616915b8281101562000360578886015182559484019460019091019084016200033f565b50858210156200037f5787850151600019600388901b60f8161c191681555b5050505050600190811b01905550565b61118a806200039f6000396000f3fe608060405234801561001057600080fd5b50600436106101585760003560e01c806390825c28116100c3578063bf333f2c1161007c578063bf333f2c146102be578063cc3cbd2a146102c6578063d642aa02146102ce578063d96a094a146102d6578063dd62ed3e146102eb578063e4849b321461032457600080fd5b806390825c281461027157806395d89b411461027957806398d5fdca14610281578063a3b2587714610289578063a9059cbb14610298578063b390452c146102ab57600080fd5b8063249d39e911610115578063249d39e914610201578063313ce5671461020a5780633e413bee1461021957806361d027b31461022c578063646c2e331461023f57806370a082311461024857600080fd5b806302d05d3f1461015d57806306fdde031461018d5780630812530e146101a2578063095ea7b3146101c357806318160ddd146101e657806323b872dd146101ee575b600080fd5b600554610170906001600160a01b031681565b6040516001600160a01b0390911681526020015b60405180910390f35b610195610337565b6040516101849190610f4a565b6101b56101b0366004610f99565b6103c9565b604051908152602001610184565b6101d66101d1366004610fce565b61048b565b6040519015158152602001610184565b6002546101b5565b6101d66101fc366004610ff8565b6104a5565b6101b561271081565b60405160128152602001610184565b600754610170906001600160a01b031681565b600854610170906001600160a01b031681565b6101b560065481565b6101b5610256366004611034565b6001600160a01b031660009081526020819052604090205490565b6101b56104c9565b6101956104fe565b6101b561050d565b6101b5670de0b6b3a764000081565b6101d66102a6366004610fce565b61054e565b6101b56102b9366004610f99565b61055c565b6101b560c881565b6101b5609681565b6101b5603281565b6102e96102e4366004610f99565b6105ce565b005b6101b56102f9366004611056565b6001600160a01b03918216600090815260016020908152604080832093909416825291909152205490565b6102e9610332366004610f99565b610872565b60606003805461034690611089565b80601f016020809104026020016040519081016040528092919081815260200182805461037290611089565b80156103bf5780601f10610394576101008083540402835291602001916103bf565b820191906000526020600020905b8154815290600101906020018083116103a257829003601f168201915b5050505050905090565b6000806103d560025490565b90508083111561041d5760405162461bcd60e51b815260206004820152600e60248201526d4578636565647320737570706c7960901b60448201526064015b60405180910390fd5b600061042984836110d3565b90506000670de0b6b3a764000061044083806110e6565b61044a85806110e6565b61045491906110d3565b61045e91906110fd565b905061271061046e60c8826110d3565b61047890836110e6565b61048291906110fd565b95945050505050565b600033610499818585610b81565b60019150505b92915050565b6000336104b3858285610b93565b6104be858585610c12565b506001949350505050565b6000670de0b6b3a76400006104dd60025490565b6104e561050d565b6104ef91906110e6565b6104f991906110fd565b905090565b60606004805461034690611089565b60008061051960025490565b90508060000361052b57600191505090565b670de0b6b3a764000061053e82806110e6565b61054891906110fd565b91505090565b600033610499818585610c12565b60008061271061056d60c8826110d3565b61057790856110e6565b61058191906110fd565b9050600061058e60025490565b905060006105a4670de0b6b3a7640000846110e6565b6105ae83806110e6565b6105b8919061111f565b9050816105c482610c71565b61048291906110d3565b6000811161060c5760405162461bcd60e51b815260206004820152600b60248201526a16995c9bc8185b5bdd5b9d60aa1b6044820152606401610414565b60006106178261055c565b9050600081116106555760405162461bcd60e51b8152602060048201526009602482015268151bdbc81cdb585b1b60ba1b6044820152606401610414565b6007546040516323b872dd60e01b8152336004820152306024820152604481018490526001600160a01b03909116906323b872dd906064016020604051808303816000875af11580156106ac573d6000803e3d6000fd5b505050506040513d601f19601f820116820180604052508101906106d09190611132565b5060006127106106e16096856110e6565b6106eb91906110fd565b905060006127106106fd6032866110e6565b61070791906110fd565b60075460055460405163a9059cbb60e01b81526001600160a01b03918216600482015260248101869052929350169063a9059cbb906044016020604051808303816000875af115801561075e573d6000803e3d6000fd5b505050506040513d601f19601f820116820180604052508101906107829190611132565b5060075460085460405163a9059cbb60e01b81526001600160a01b0391821660048201526024810184905291169063a9059cbb906044016020604051808303816000875af11580156107d8573d6000803e3d6000fd5b505050506040513d601f19601f820116820180604052508101906107fc9190611132565b506108073384610cdb565b337f0d6f8407dac4690d12753a73f26a42162a8d8b88471604b5d23b72f5be082cf4858561083361050d565b6040805160808082526003908201526262757960e81b60a08201526020810194909452830191909152606082015260c00160405180910390a250505050565b600081116108b05760405162461bcd60e51b815260206004820152600b60248201526a16995c9bc8185b5bdd5b9d60aa1b6044820152606401610414565b336000908152602081905260409020548111156109065760405162461bcd60e51b8152602060048201526014602482015273496e73756666696369656e742062616c616e636560601b6044820152606401610414565b6000610911826103c9565b90506000811161094f5760405162461bcd60e51b8152602060048201526009602482015268151bdbc81cdb585b1b60ba1b6044820152606401610414565b6109593383610d15565b60006127106109696096846110e6565b61097391906110fd565b905060006127106109856032856110e6565b61098f91906110fd565b905060008161099e84866110d3565b6109a891906110d3565b60075460055460405163a9059cbb60e01b81526001600160a01b03918216600482015260248101879052929350169063a9059cbb906044016020604051808303816000875af11580156109ff573d6000803e3d6000fd5b505050506040513d601f19601f82011682018060405250810190610a239190611132565b5060075460085460405163a9059cbb60e01b81526001600160a01b0391821660048201526024810185905291169063a9059cbb906044016020604051808303816000875af1158015610a79573d6000803e3d6000fd5b505050506040513d601f19601f82011682018060405250810190610a9d9190611132565b5060075460405163a9059cbb60e01b8152336004820152602481018390526001600160a01b039091169063a9059cbb906044016020604051808303816000875af1158015610aef573d6000803e3d6000fd5b505050506040513d601f19601f82011682018060405250810190610b139190611132565b50337f0d6f8407dac4690d12753a73f26a42162a8d8b88471604b5d23b72f5be082cf48587610b4061050d565b604080516080808252600490820152631cd95b1b60e21b60a08201526020810194909452830191909152606082015260c00160405180910390a25050505050565b610b8e8383836001610d4b565b505050565b6001600160a01b03838116600090815260016020908152604080832093861683529290522054600019811015610c0c5781811015610bfd57604051637dc7a0d960e11b81526001600160a01b03841660048201526024810182905260448101839052606401610414565b610c0c84848484036000610d4b565b50505050565b6001600160a01b038316610c3c57604051634b637e8f60e11b815260006004820152602401610414565b6001600160a01b038216610c665760405163ec442f0560e01b815260006004820152602401610414565b610b8e838383610e20565b600081600003610c8357506000919050565b60006002610c9284600161111f565b610c9c91906110fd565b90508291505b81811015610cd557905080600281610cba81866110fd565b610cc4919061111f565b610cce91906110fd565b9050610ca2565b50919050565b6001600160a01b038216610d055760405163ec442f0560e01b815260006004820152602401610414565b610d1160008383610e20565b5050565b6001600160a01b038216610d3f57604051634b637e8f60e11b815260006004820152602401610414565b610d1182600083610e20565b6001600160a01b038416610d755760405163e602df0560e01b815260006004820152602401610414565b6001600160a01b038316610d9f57604051634a1406b160e11b815260006004820152602401610414565b6001600160a01b0380851660009081526001602090815260408083209387168352929052208290558015610c0c57826001600160a01b0316846001600160a01b03167f8c5be1e5ebec7d5bd14f71427d1e84f3dd0314c0f7b2291e5b200ac8c7c3b92584604051610e1291815260200190565b60405180910390a350505050565b6001600160a01b038316610e4b578060026000828254610e40919061111f565b90915550610ebd9050565b6001600160a01b03831660009081526020819052604090205481811015610e9e5760405163391434e360e21b81526001600160a01b03851660048201526024810182905260448101839052606401610414565b6001600160a01b03841660009081526020819052604090209082900390555b6001600160a01b038216610ed957600280548290039055610ef8565b6001600160a01b03821660009081526020819052604090208054820190555b816001600160a01b0316836001600160a01b03167fddf252ad1be2c89b69c2b068fc378daa952ba7f163c4a11628f55a4df523b3ef83604051610f3d91815260200190565b60405180910390a3505050565b60006020808352835180602085015260005b81811015610f7857858101830151858201604001528201610f5c565b506000604082860101526040601f19601f8301168501019250505092915050565b600060208284031215610fab57600080fd5b5035919050565b80356001600160a01b0381168114610fc957600080fd5b919050565b60008060408385031215610fe157600080fd5b610fea83610fb2565b946020939093013593505050565b60008060006060848603121561100d57600080fd5b61101684610fb2565b925061102460208501610fb2565b9150604084013590509250925092565b60006020828403121561104657600080fd5b61104f82610fb2565b9392505050565b6000806040838503121561106957600080fd5b61107283610fb2565b915061108060208401610fb2565b90509250929050565b600181811c9082168061109d57607f821691505b602082108103610cd557634e487b7160e01b600052602260045260246000fd5b634e487b7160e01b600052601160045260246000fd5b8181038181111561049f5761049f6110bd565b808202811582820484141761049f5761049f6110bd565b60008261111a57634e487b7160e01b600052601260045260246000fd5b500490565b8082018082111561049f5761049f6110bd565b60006020828403121561114457600080fd5b8151801515811461104f57600080fdfea2646970667358221220a1436745056532a166f2ec883023d01066294df85c4397a70e94d63b405dcc4964736f6c63430008180033a2646970667358221220747c8c6e228aaac1553371c4767e20123ffb5b5d0b5dec4ce01151ab6acac31564736f6c63430008180033","opcodes":"PUSH1 0x80 PUSH1 0x40 MSTORE CALLVALUE DUP1 ISZERO PUSH2 0x10 JUMPI PUSH1 0x0 DUP1 REVERT JUMPDEST POP PUSH1 0x40 MLOAD PUSH2 0x1FBD CODESIZE SUB DUP1 PUSH2 0x1FBD DUP4 CODECOPY DUP2 ADD PUSH1 0x40 DUP2 SWAP1 MSTORE PUSH2 0x2F SWAP2 PUSH2 0x9E JUMP JUMPDEST PUSH1 0x0 DUP1 SLOAD PUSH1 0x1 PUSH1 0x1 PUSH1 0xA0 SHL SUB SWAP6 DUP7 AND PUSH1 0x1 PUSH1 0x1 PUSH1 0xA0 SHL SUB NOT SWAP2 DUP3 AND OR SWAP1 SWAP2 SSTORE PUSH1 0x1 DUP1 SLOAD SWAP5 DUP7 AND SWAP5 DUP3 AND SWAP5 SWAP1 SWAP5 OR SWAP1 SWAP4 SSTORE PUSH1 0x2 DUP1 SLOAD SWAP3 DUP6 AND SWAP3 DUP5 AND SWAP3 SWAP1 SWAP3 OR SWAP1 SWAP2 SSTORE PUSH1 0x3 DUP1 SLOAD SWAP2 SWAP1 SWAP4 AND SWAP2 AND OR SWAP1 SSTORE PUSH2 0xF2 JUMP JUMPDEST DUP1 MLOAD PUSH1 0x1 PUSH1 0x1 PUSH1 0xA0 SHL SUB DUP2 AND DUP2 EQ PUSH2 0x99 JUMPI PUSH1 0x0 DUP1 REVERT JUMPDEST SWAP2 SWAP1 POP JUMP JUMPDEST PUSH1 0x0 DUP1 PUSH1 0x0 DUP1 PUSH1 0x80 DUP6 DUP8 SUB SLT ISZERO PUSH2 0xB4 JUMPI PUSH1 0x0 DUP1 REVERT JUMPDEST PUSH2 0xBD DUP6 PUSH2 0x82 JUMP JUMPDEST SWAP4 POP PUSH2 0xCB PUSH1 0x20 DUP7 ADD PUSH2 0x82 JUMP JUMPDEST SWAP3 POP PUSH2 0xD9 PUSH1 0x40 DUP7 ADD PUSH2 0x82 JUMP JUMPDEST SWAP2 POP PUSH2 0xE7 PUSH1 0x60 DUP7 ADD PUSH2 0x82 JUMP JUMPDEST SWAP1 POP SWAP3 SWAP6 SWAP2 SWAP5 POP SWAP3 POP JUMP JUMPDEST PUSH2 0x1EBC DUP1 PUSH2 0x101 PUSH1 0x0 CODECOPY PUSH1 0x0 RETURN INVALID PUSH1 0x80 PUSH1 0x40 MSTORE CALLVALUE DUP1 ISZERO PUSH3 0x11 JUMPI PUSH1 0x0 DUP1 REVERT JUMPDEST POP PUSH1 0x4 CALLDATASIZE LT PUSH3 0xE0 JUMPI PUSH1 0x0 CALLDATALOAD PUSH1 0xE0 SHR DUP1 PUSH4 0x61D027B3 GT PUSH3 0x97 JUMPI DUP1 PUSH4 0xAE3E88AD GT PUSH3 0x6E JUMPI DUP1 PUSH4 0xAE3E88AD EQ PUSH3 0x1DC JUMPI DUP1 PUSH4 0xBCC95407 EQ PUSH3 0x208 JUMPI DUP1 PUSH4 0xC2FEAD6D EQ PUSH3 0x21A JUMPI DUP1 PUSH4 0xDA7FC24F EQ PUSH3 0x231 JUMPI PUSH1 0x0 DUP1 REVERT JUMPDEST DUP1 PUSH4 0x61D027B3 EQ PUSH3 0x19A JUMPI DUP1 PUSH4 0x718CE2BC EQ PUSH3 0x1AE JUMPI DUP1 PUSH4 0xAC61795B EQ PUSH3 0x1C5 JUMPI PUSH1 0x0 DUP1 REVERT JUMPDEST DUP1 PUSH4 0x2D45457 EQ PUSH3 0xE5 JUMPI DUP1 PUSH4 0x99E4133 EQ PUSH3 0x116 JUMPI DUP1 PUSH4 0xD1CFCAE EQ PUSH3 0x12A JUMPI DUP1 PUSH4 0x1FD9CF74 EQ PUSH3 0x13E JUMPI DUP1 PUSH4 0x30561100 EQ PUSH3 0x16A JUMPI DUP1 PUSH4 0x3F09DE4B EQ PUSH3 0x183 JUMPI JUMPDEST PUSH1 0x0 DUP1 REVERT JUMPDEST PUSH1 0x2 SLOAD PUSH3 0xF9 SWAP1 PUSH1 0x1 PUSH1 0x1 PUSH1 0xA0 SHL SUB AND DUP2 JUMP JUMPDEST PUSH1 0x40 MLOAD PUSH1 0x1 PUSH1 0x1 PUSH1 0xA0 SHL SUB SWAP1 SWAP2 AND DUP2 MSTORE PUSH1 0x20 ADD JUMPDEST PUSH1 0x40 MLOAD DUP1 SWAP2 SUB SWAP1 RETURN JUMPDEST PUSH1 0x3 SLOAD PUSH3 0xF9 SWAP1 PUSH1 0x1 PUSH1 0x1 PUSH1 0xA0 SHL SUB AND DUP2 JUMP JUMPDEST PUSH1 0x0 SLOAD PUSH3 0xF9 SWAP1 PUSH1 0x1 PUSH1 0x1 PUSH1 0xA0 SHL SUB AND DUP2 JUMP JUMPDEST PUSH3 0xF9 PUSH3 0x14F CALLDATASIZE PUSH1 0x4 PUSH3 0x6C7 JUMP JUMPDEST PUSH1 0x4 PUSH1 0x20 MSTORE PUSH1 0x0 SWAP1 DUP2 MSTORE PUSH1 0x40 SWAP1 KECCAK256 SLOAD PUSH1 0x1 PUSH1 0x1 PUSH1 0xA0 SHL SUB AND DUP2 JUMP JUMPDEST PUSH3 0x174 PUSH3 0x24A JUMP JUMPDEST PUSH1 0x40 MLOAD PUSH3 0x10D SWAP2 SWAP1 PUSH3 0x6E1 JUMP JUMPDEST PUSH3 0xF9 PUSH3 0x194 CALLDATASIZE PUSH1 0x4 PUSH3 0x74D JUMP JUMPDEST PUSH3 0x2AE JUMP JUMPDEST PUSH1 0x1 SLOAD PUSH3 0xF9 SWAP1 PUSH1 0x1 PUSH1 0x1 PUSH1 0xA0 SHL SUB AND DUP2 JUMP JUMPDEST PUSH3 0xF9 PUSH3 0x1BF CALLDATASIZE PUSH1 0x4 PUSH3 0x6C7 JUMP JUMPDEST PUSH3 0x570 JUMP JUMPDEST PUSH3 0x174 PUSH3 0x1D6 CALLDATASIZE PUSH1 0x4 PUSH3 0x7DB JUMP JUMPDEST PUSH3 0x59B JUMP JUMPDEST PUSH3 0xF9 PUSH3 0x1ED CALLDATASIZE PUSH1 0x4 PUSH3 0x6C7 JUMP JUMPDEST PUSH1 0x0 SWAP1 DUP2 MSTORE PUSH1 0x4 PUSH1 0x20 MSTORE PUSH1 0x40 SWAP1 KECCAK256 SLOAD PUSH1 0x1 PUSH1 0x1 PUSH1 0xA0 SHL SUB AND SWAP1 JUMP JUMPDEST PUSH1 0x6 SLOAD PUSH1 0x40 MLOAD SWAP1 DUP2 MSTORE PUSH1 0x20 ADD PUSH3 0x10D JUMP JUMPDEST PUSH3 0xF9 PUSH3 0x22B CALLDATASIZE PUSH1 0x4 PUSH3 0x800 JUMP JUMPDEST PUSH3 0x613 JUMP JUMPDEST PUSH3 0x248 PUSH3 0x242 CALLDATASIZE PUSH1 0x4 PUSH3 0x7DB JUMP JUMPDEST PUSH3 0x64C JUMP JUMPDEST STOP JUMPDEST PUSH1 0x60 PUSH1 0x6 DUP1 SLOAD DUP1 PUSH1 0x20 MUL PUSH1 0x20 ADD PUSH1 0x40 MLOAD SWAP1 DUP2 ADD PUSH1 0x40 MSTORE DUP1 SWAP3 SWAP2 SWAP1 DUP2 DUP2 MSTORE PUSH1 0x20 ADD DUP3 DUP1 SLOAD DUP1 ISZERO PUSH3 0x2A4 JUMPI PUSH1 0x20 MUL DUP3 ADD SWAP2 SWAP1 PUSH1 0x0 MSTORE PUSH1 0x20 PUSH1 0x0 KECCAK256 SWAP1 JUMPDEST DUP2 SLOAD PUSH1 0x1 PUSH1 0x1 PUSH1 0xA0 SHL SUB AND DUP2 MSTORE PUSH1 0x1 SWAP1 SWAP2 ADD SWAP1 PUSH1 0x20 ADD DUP1 DUP4 GT PUSH3 0x285 JUMPI JUMPDEST POP POP POP POP POP SWAP1 POP SWAP1 JUMP JUMPDEST PUSH1 0x3 SLOAD PUSH1 0x0 SWAP1 PUSH1 0x1 PUSH1 0x1 PUSH1 0xA0 SHL SUB AND CALLER EQ PUSH3 0x300 JUMPI PUSH1 0x40 MLOAD PUSH3 0x461BCD PUSH1 0xE5 SHL DUP2 MSTORE PUSH1 0x20 PUSH1 0x4 DUP3 ADD MSTORE PUSH1 0xC PUSH1 0x24 DUP3 ADD MSTORE PUSH12 0x13DB9B1E48189858DAD95B99 PUSH1 0xA2 SHL PUSH1 0x44 DUP3 ADD MSTORE PUSH1 0x64 ADD JUMPDEST PUSH1 0x40 MLOAD DUP1 SWAP2 SUB SWAP1 REVERT JUMPDEST PUSH1 0x0 SLOAD PUSH1 0x40 MLOAD PUSH4 0x5505CD7 PUSH1 0xE3 SHL DUP2 MSTORE PUSH1 0x1 PUSH1 0x1 PUSH1 0xA0 SHL SUB DUP8 DUP2 AND PUSH1 0x4 DUP4 ADD MSTORE SWAP1 SWAP2 AND SWAP1 PUSH4 0x2A82E6B8 SWAP1 PUSH1 0x24 ADD PUSH1 0x20 PUSH1 0x40 MLOAD DUP1 DUP4 SUB DUP2 DUP7 GAS STATICCALL ISZERO DUP1 ISZERO PUSH3 0x34B JUMPI RETURNDATASIZE PUSH1 0x0 DUP1 RETURNDATACOPY RETURNDATASIZE PUSH1 0x0 REVERT JUMPDEST POP POP POP POP PUSH1 0x40 MLOAD RETURNDATASIZE PUSH1 0x1F NOT PUSH1 0x1F DUP3 ADD AND DUP3 ADD DUP1 PUSH1 0x40 MSTORE POP DUP2 ADD SWAP1 PUSH3 0x371 SWAP2 SWAP1 PUSH3 0x82D JUMP JUMPDEST PUSH3 0x3B4 JUMPI PUSH1 0x40 MLOAD PUSH3 0x461BCD PUSH1 0xE5 SHL DUP2 MSTORE PUSH1 0x20 PUSH1 0x4 DUP3 ADD MSTORE PUSH1 0x12 PUSH1 0x24 DUP3 ADD MSTORE PUSH18 0x1059D95B9D081B9BDD081D995C9A599A5959 PUSH1 0x72 SHL PUSH1 0x44 DUP3 ADD MSTORE PUSH1 0x64 ADD PUSH3 0x2F7 JUMP JUMPDEST PUSH1 0x0 DUP5 DUP2 MSTORE PUSH1 0x4 PUSH1 0x20 MSTORE PUSH1 0x40 SWAP1 KECCAK256 SLOAD PUSH1 0x1 PUSH1 0x1 PUSH1 0xA0 SHL SUB AND ISZERO PUSH3 0x414 JUMPI PUSH1 0x40 MLOAD PUSH3 0x461BCD PUSH1 0xE5 SHL DUP2 MSTORE PUSH1 0x20 PUSH1 0x4 DUP3 ADD MSTORE PUSH1 0x16 PUSH1 0x24 DUP3 ADD MSTORE PUSH22 0x10DBDB9D195B9D08185B1C9958591E481C1BDCDD1959 PUSH1 0x52 SHL PUSH1 0x44 DUP3 ADD MSTORE PUSH1 0x64 ADD PUSH3 0x2F7 JUMP JUMPDEST PUSH1 0x2 SLOAD PUSH1 0x1 SLOAD PUSH1 0x40 MLOAD PUSH1 0x0 SWAP3 DUP9 SWAP3 DUP9 SWAP3 PUSH1 0x1 PUSH1 0x1 PUSH1 0xA0 SHL SUB SWAP3 DUP4 AND SWAP3 SWAP1 SWAP2 AND SWAP1 PUSH3 0x446 SWAP1 DUP10 SWAP1 DUP10 SWAP1 PUSH1 0x20 ADD PUSH3 0x851 JUMP JUMPDEST PUSH1 0x40 MLOAD PUSH1 0x20 DUP2 DUP4 SUB SUB DUP2 MSTORE SWAP1 PUSH1 0x40 MSTORE DUP9 DUP9 PUSH1 0x40 MLOAD PUSH3 0x465 SWAP1 PUSH3 0x6B9 JUMP JUMPDEST PUSH3 0x477 SWAP8 SWAP7 SWAP6 SWAP5 SWAP4 SWAP3 SWAP2 SWAP1 PUSH3 0x89F JUMP JUMPDEST PUSH1 0x40 MLOAD DUP1 SWAP2 SUB SWAP1 PUSH1 0x0 CREATE DUP1 ISZERO DUP1 ISZERO PUSH3 0x494 JUMPI RETURNDATASIZE PUSH1 0x0 DUP1 RETURNDATACOPY RETURNDATASIZE PUSH1 0x0 REVERT JUMPDEST POP PUSH1 0x0 DUP7 DUP2 MSTORE PUSH1 0x4 PUSH1 0x20 SWAP1 DUP2 MSTORE PUSH1 0x40 DUP1 DUP4 KECCAK256 DUP1 SLOAD PUSH1 0x1 PUSH1 0x1 PUSH1 0xA0 SHL SUB DUP1 DUP8 AND PUSH1 0x1 PUSH1 0x1 PUSH1 0xA0 SHL SUB NOT SWAP3 DUP4 AND DUP2 OR SWAP1 SWAP4 SSTORE DUP13 AND DUP1 DUP7 MSTORE PUSH1 0x5 DUP6 MSTORE DUP4 DUP7 KECCAK256 DUP1 SLOAD PUSH1 0x1 DUP2 DUP2 ADD DUP4 SSTORE SWAP2 DUP9 MSTORE SWAP6 DUP8 KECCAK256 SWAP1 SWAP6 ADD DUP1 SLOAD DUP4 AND DUP5 OR SWAP1 SSTORE PUSH1 0x6 DUP1 SLOAD SWAP6 DUP7 ADD DUP2 SSTORE SWAP1 SWAP6 MSTORE PUSH32 0xF652222313E28459528D920B65115C16C04F3EFC82AAEDC97BE59F3F377C0D3F SWAP1 SWAP4 ADD DUP1 SLOAD SWAP1 SWAP4 AND DUP2 OR SWAP1 SWAP3 SSTORE MLOAD SWAP3 SWAP5 POP DUP5 SWAP4 POP SWAP2 PUSH32 0x8CED794F909DCF600C5D428B4A08789FAF928A54801DA5CBC5D03B34E019F8AE SWAP1 PUSH3 0x55F SWAP1 DUP10 SWAP1 DUP10 SWAP1 DUP10 SWAP1 PUSH3 0x938 JUMP JUMPDEST PUSH1 0x40 MLOAD DUP1 SWAP2 SUB SWAP1 LOG3 POP SWAP5 SWAP4 POP POP POP POP JUMP JUMPDEST PUSH1 0x6 DUP2 DUP2 SLOAD DUP2 LT PUSH3 0x581 JUMPI PUSH1 0x0 DUP1 REVERT JUMPDEST PUSH1 0x0 SWAP2 DUP3 MSTORE PUSH1 0x20 SWAP1 SWAP2 KECCAK256 ADD SLOAD PUSH1 0x1 PUSH1 0x1 PUSH1 0xA0 SHL SUB AND SWAP1 POP DUP2 JUMP JUMPDEST PUSH1 0x1 PUSH1 0x1 PUSH1 0xA0 SHL SUB DUP2 AND PUSH1 0x0 SWAP1 DUP2 MSTORE PUSH1 0x5 PUSH1 0x20 SWAP1 DUP2 MSTORE PUSH1 0x40 SWAP2 DUP3 SWAP1 KECCAK256 DUP1 SLOAD DUP4 MLOAD DUP2 DUP5 MUL DUP2 ADD DUP5 ADD SWAP1 SWAP5 MSTORE DUP1 DUP5 MSTORE PUSH1 0x60 SWAP4 SWAP3 DUP4 ADD DUP3 DUP3 DUP1 ISZERO PUSH3 0x607 JUMPI PUSH1 0x20 MUL DUP3 ADD SWAP2 SWAP1 PUSH1 0x0 MSTORE PUSH1 0x20 PUSH1 0x0 KECCAK256 SWAP1 JUMPDEST DUP2 SLOAD PUSH1 0x1 PUSH1 0x1 PUSH1 0xA0 SHL SUB AND DUP2 MSTORE PUSH1 0x1 SWAP1 SWAP2 ADD SWAP1 PUSH1 0x20 ADD DUP1 DUP4 GT PUSH3 0x5E8 JUMPI JUMPDEST POP POP POP POP POP SWAP1 POP SWAP2 SWAP1 POP JUMP JUMPDEST PUSH1 0x5 PUSH1 0x20 MSTORE DUP2 PUSH1 0x0 MSTORE PUSH1 0x40 PUSH1 0x0 KECCAK256 DUP2 DUP2 SLOAD DUP2 LT PUSH3 0x630 JUMPI PUSH1 0x0 DUP1 REVERT JUMPDEST PUSH1 0x0 SWAP2 DUP3 MSTORE PUSH1 0x20 SWAP1 SWAP2 KECCAK256 ADD SLOAD PUSH1 0x1 PUSH1 0x1 PUSH1 0xA0 SHL SUB AND SWAP2 POP DUP3 SWAP1 POP JUMP JUMPDEST PUSH1 0x3 SLOAD PUSH1 0x1 PUSH1 0x1 PUSH1 0xA0 SHL SUB AND CALLER EQ PUSH3 0x697 JUMPI PUSH1 0x40 MLOAD PUSH3 0x461BCD PUSH1 0xE5 SHL DUP2 MSTORE PUSH1 0x20 PUSH1 0x4 DUP3 ADD MSTORE PUSH1 0xC PUSH1 0x24 DUP3 ADD MSTORE PUSH12 0x13DB9B1E48189858DAD95B99 PUSH1 0xA2 SHL PUSH1 0x44 DUP3 ADD MSTORE PUSH1 0x64 ADD PUSH3 0x2F7 JUMP JUMPDEST PUSH1 0x3 DUP1 SLOAD PUSH1 0x1 PUSH1 0x1 PUSH1 0xA0 SHL SUB NOT AND PUSH1 0x1 PUSH1 0x1 PUSH1 0xA0 SHL SUB SWAP3 SWAP1 SWAP3 AND SWAP2 SWAP1 SWAP2 OR SWAP1 SSTORE JUMP JUMPDEST PUSH2 0x1529 DUP1 PUSH3 0x95E DUP4 CODECOPY ADD SWAP1 JUMP JUMPDEST PUSH1 0x0 PUSH1 0x20 DUP3 DUP5 SUB SLT ISZERO PUSH3 0x6DA JUMPI PUSH1 0x0 DUP1 REVERT JUMPDEST POP CALLDATALOAD SWAP2 SWAP1 POP JUMP JUMPDEST PUSH1 0x20 DUP1 DUP3 MSTORE DUP3 MLOAD DUP3 DUP3 ADD DUP2 SWAP1 MSTORE PUSH1 0x0 SWAP2 SWAP1 DUP5 DUP3 ADD SWAP1 PUSH1 0x40 DUP6 ADD SWAP1 DUP5 JUMPDEST DUP2 DUP2 LT ISZERO PUSH3 0x724 JUMPI DUP4 MLOAD PUSH1 0x1 PUSH1 0x1 PUSH1 0xA0 SHL SUB AND DUP4 MSTORE SWAP3 DUP5 ADD SWAP3 SWAP2 DUP5 ADD SWAP2 PUSH1 0x1 ADD PUSH3 0x6FD JUMP JUMPDEST POP SWAP1 SWAP7 SWAP6 POP POP POP POP POP POP JUMP JUMPDEST DUP1 CALLDATALOAD PUSH1 0x1 PUSH1 0x1 PUSH1 0xA0 SHL SUB DUP2 AND DUP2 EQ PUSH3 0x748 JUMPI PUSH1 0x0 DUP1 REVERT JUMPDEST SWAP2 SWAP1 POP JUMP JUMPDEST PUSH1 0x0 DUP1 PUSH1 0x0 DUP1 PUSH1 0x60 DUP6 DUP8 SUB SLT ISZERO PUSH3 0x764 JUMPI PUSH1 0x0 DUP1 REVERT JUMPDEST PUSH3 0x76F DUP6 PUSH3 0x730 JUMP JUMPDEST SWAP4 POP PUSH1 0x20 DUP6 ADD CALLDATALOAD SWAP3 POP PUSH1 0x40 DUP6 ADD CALLDATALOAD PUSH8 0xFFFFFFFFFFFFFFFF DUP1 DUP3 GT ISZERO PUSH3 0x794 JUMPI PUSH1 0x0 DUP1 REVERT JUMPDEST DUP2 DUP8 ADD SWAP2 POP DUP8 PUSH1 0x1F DUP4 ADD SLT PUSH3 0x7A9 JUMPI PUSH1 0x0 DUP1 REVERT JUMPDEST DUP2 CALLDATALOAD DUP2 DUP2 GT ISZERO PUSH3 0x7B9 JUMPI PUSH1 0x0 DUP1 REVERT JUMPDEST DUP9 PUSH1 0x20 DUP3 DUP6 ADD ADD GT ISZERO PUSH3 0x7CC JUMPI PUSH1 0x0 DUP1 REVERT JUMPDEST SWAP6 SWAP9 SWAP5 SWAP8 POP POP PUSH1 0x20 ADD SWAP5 POP POP POP JUMP JUMPDEST PUSH1 0x0 PUSH1 0x20 DUP3 DUP5 SUB SLT ISZERO PUSH3 0x7EE JUMPI PUSH1 0x0 DUP1 REVERT JUMPDEST PUSH3 0x7F9 DUP3 PUSH3 0x730 JUMP JUMPDEST SWAP4 SWAP3 POP POP POP JUMP JUMPDEST PUSH1 0x0 DUP1 PUSH1 0x40 DUP4 DUP6 SUB SLT ISZERO PUSH3 0x814 JUMPI PUSH1 0x0 DUP1 REVERT JUMPDEST PUSH3 0x81F DUP4 PUSH3 0x730 JUMP JUMPDEST SWAP5 PUSH1 0x20 SWAP4 SWAP1 SWAP4 ADD CALLDATALOAD SWAP4 POP POP POP JUMP JUMPDEST PUSH1 0x0 PUSH1 0x20 DUP3 DUP5 SUB SLT ISZERO PUSH3 0x840 JUMPI PUSH1 0x0 DUP1 REVERT JUMPDEST DUP2 MLOAD DUP1 ISZERO ISZERO DUP2 EQ PUSH3 0x7F9 JUMPI PUSH1 0x0 DUP1 REVERT JUMPDEST PUSH9 0x20B3B2B73A23349D1 PUSH1 0xBD SHL DUP2 MSTORE DUP2 DUP4 PUSH1 0x9 DUP4 ADD CALLDATACOPY PUSH1 0x0 SWAP2 ADD PUSH1 0x9 ADD SWAP1 DUP2 MSTORE SWAP2 SWAP1 POP JUMP JUMPDEST DUP2 DUP4 MSTORE DUP2 DUP2 PUSH1 0x20 DUP6 ADD CALLDATACOPY POP PUSH1 0x0 DUP3 DUP3 ADD PUSH1 0x20 SWAP1 DUP2 ADD SWAP2 SWAP1 SWAP2 MSTORE PUSH1 0x1F SWAP1 SWAP2 ADD PUSH1 0x1F NOT AND SWAP1 SWAP2 ADD ADD SWAP1 JUMP JUMPDEST PUSH1 0x1 PUSH1 0x1 PUSH1 0xA0 SHL SUB DUP9 DUP2 AND DUP3 MSTORE PUSH1 0x20 DUP1 DUP4 ADD DUP10 SWAP1 MSTORE DUP8 DUP3 AND PUSH1 0x40 DUP5 ADD MSTORE SWAP1 DUP7 AND PUSH1 0x60 DUP4 ADD MSTORE PUSH1 0xC0 PUSH1 0x80 DUP4 ADD DUP2 SWAP1 MSTORE DUP6 MLOAD SWAP1 DUP4 ADD DUP2 SWAP1 MSTORE PUSH1 0x0 SWAP2 DUP3 JUMPDEST DUP3 DUP2 LT ISZERO PUSH3 0x8F8 JUMPI DUP8 DUP2 ADD DUP3 ADD MLOAD DUP6 DUP3 ADD PUSH1 0xE0 ADD MSTORE DUP2 ADD PUSH3 0x8DA JUMP JUMPDEST POP POP PUSH1 0x0 PUSH1 0xE0 DUP3 DUP6 ADD ADD MSTORE PUSH1 0x1F NOT PUSH1 0x1F DUP3 ADD AND DUP4 ADD SWAP1 POP PUSH1 0xE0 DUP4 DUP3 SUB ADD PUSH1 0xA0 DUP5 ADD MSTORE PUSH3 0x92A PUSH1 0xE0 DUP3 ADD DUP6 DUP8 PUSH3 0x876 JUMP JUMPDEST SWAP11 SWAP10 POP POP POP POP POP POP POP POP POP POP JUMP JUMPDEST DUP4 DUP2 MSTORE PUSH1 0x40 PUSH1 0x20 DUP3 ADD MSTORE PUSH1 0x0 PUSH3 0x954 PUSH1 0x40 DUP4 ADD DUP5 DUP7 PUSH3 0x876 JUMP JUMPDEST SWAP6 SWAP5 POP POP POP POP POP JUMP INVALID PUSH1 0x80 PUSH1 0x40 MSTORE CALLVALUE DUP1 ISZERO PUSH3 0x11 JUMPI PUSH1 0x0 DUP1 REVERT JUMPDEST POP PUSH1 0x40 MLOAD PUSH3 0x1529 CODESIZE SUB DUP1 PUSH3 0x1529 DUP4 CODECOPY DUP2 ADD PUSH1 0x40 DUP2 SWAP1 MSTORE PUSH3 0x34 SWAP2 PUSH3 0x187 JUMP JUMPDEST DUP2 DUP2 PUSH1 0x3 PUSH3 0x44 DUP4 DUP3 PUSH3 0x2C3 JUMP JUMPDEST POP PUSH1 0x4 PUSH3 0x53 DUP3 DUP3 PUSH3 0x2C3 JUMP JUMPDEST POP POP PUSH1 0x5 DUP1 SLOAD PUSH1 0x1 PUSH1 0x1 PUSH1 0xA0 SHL SUB NOT SWAP1 DUP2 AND PUSH1 0x1 PUSH1 0x1 PUSH1 0xA0 SHL SUB SWAP10 DUP11 AND OR SWAP1 SWAP2 SSTORE PUSH1 0x6 SWAP7 SWAP1 SWAP7 SSTORE POP POP PUSH1 0x7 DUP1 SLOAD DUP6 AND SWAP4 DUP7 AND SWAP4 SWAP1 SWAP4 OR SWAP1 SWAP3 SSTORE PUSH1 0x8 DUP1 SLOAD SWAP1 SWAP4 AND SWAP4 AND SWAP3 SWAP1 SWAP3 OR SWAP1 SSTORE POP PUSH3 0x38F JUMP JUMPDEST DUP1 MLOAD PUSH1 0x1 PUSH1 0x1 PUSH1 0xA0 SHL SUB DUP2 AND DUP2 EQ PUSH3 0xBA JUMPI PUSH1 0x0 DUP1 REVERT JUMPDEST SWAP2 SWAP1 POP JUMP JUMPDEST PUSH4 0x4E487B71 PUSH1 0xE0 SHL PUSH1 0x0 MSTORE PUSH1 0x41 PUSH1 0x4 MSTORE PUSH1 0x24 PUSH1 0x0 REVERT JUMPDEST PUSH1 0x0 DUP3 PUSH1 0x1F DUP4 ADD SLT PUSH3 0xE7 JUMPI PUSH1 0x0 DUP1 REVERT JUMPDEST DUP2 MLOAD PUSH1 0x1 PUSH1 0x1 PUSH1 0x40 SHL SUB DUP1 DUP3 GT ISZERO PUSH3 0x104 JUMPI PUSH3 0x104 PUSH3 0xBF JUMP JUMPDEST PUSH1 0x40 MLOAD PUSH1 0x1F DUP4 ADD PUSH1 0x1F NOT SWAP1 DUP2 AND PUSH1 0x3F ADD AND DUP2 ADD SWAP1 DUP3 DUP3 GT DUP2 DUP4 LT OR ISZERO PUSH3 0x12F JUMPI PUSH3 0x12F PUSH3 0xBF JUMP JUMPDEST DUP2 PUSH1 0x40 MSTORE DUP4 DUP2 MSTORE PUSH1 0x20 SWAP3 POP DUP7 PUSH1 0x20 DUP6 DUP9 ADD ADD GT ISZERO PUSH3 0x14D JUMPI PUSH1 0x0 DUP1 REVERT JUMPDEST PUSH1 0x0 SWAP2 POP JUMPDEST DUP4 DUP3 LT ISZERO PUSH3 0x171 JUMPI DUP6 DUP3 ADD DUP4 ADD MLOAD DUP2 DUP4 ADD DUP5 ADD MSTORE SWAP1 DUP3 ADD SWAP1 PUSH3 0x152 JUMP JUMPDEST PUSH1 0x0 PUSH1 0x20 DUP6 DUP4 ADD ADD MSTORE DUP1 SWAP5 POP POP POP POP POP SWAP3 SWAP2 POP POP JUMP JUMPDEST PUSH1 0x0 DUP1 PUSH1 0x0 DUP1 PUSH1 0x0 DUP1 PUSH1 0xC0 DUP8 DUP10 SUB SLT ISZERO PUSH3 0x1A1 JUMPI PUSH1 0x0 DUP1 REVERT JUMPDEST PUSH3 0x1AC DUP8 PUSH3 0xA2 JUMP JUMPDEST SWAP6 POP PUSH1 0x20 DUP8 ADD MLOAD SWAP5 POP PUSH3 0x1C3 PUSH1 0x40 DUP9 ADD PUSH3 0xA2 JUMP JUMPDEST SWAP4 POP PUSH3 0x1D3 PUSH1 0x60 DUP9 ADD PUSH3 0xA2 JUMP JUMPDEST PUSH1 0x80 DUP9 ADD MLOAD SWAP1 SWAP4 POP PUSH1 0x1 PUSH1 0x1 PUSH1 0x40 SHL SUB DUP1 DUP3 GT ISZERO PUSH3 0x1F1 JUMPI PUSH1 0x0 DUP1 REVERT JUMPDEST PUSH3 0x1FF DUP11 DUP4 DUP12 ADD PUSH3 0xD5 JUMP JUMPDEST SWAP4 POP PUSH1 0xA0 DUP10 ADD MLOAD SWAP2 POP DUP1 DUP3 GT ISZERO PUSH3 0x216 JUMPI PUSH1 0x0 DUP1 REVERT JUMPDEST POP PUSH3 0x225 DUP10 DUP3 DUP11 ADD PUSH3 0xD5 JUMP JUMPDEST SWAP2 POP POP SWAP3 SWAP6 POP SWAP3 SWAP6 POP SWAP3 SWAP6 JUMP JUMPDEST PUSH1 0x1 DUP2 DUP2 SHR SWAP1 DUP3 AND DUP1 PUSH3 0x247 JUMPI PUSH1 0x7F DUP3 AND SWAP2 POP JUMPDEST PUSH1 0x20 DUP3 LT DUP2 SUB PUSH3 0x268 JUMPI PUSH4 0x4E487B71 PUSH1 0xE0 SHL PUSH1 0x0 MSTORE PUSH1 0x22 PUSH1 0x4 MSTORE PUSH1 0x24 PUSH1 0x0 REVERT JUMPDEST POP SWAP2 SWAP1 POP JUMP JUMPDEST PUSH1 0x1F DUP3 GT ISZERO PUSH3 0x2BE JUMPI PUSH1 0x0 DUP2 PUSH1 0x0 MSTORE PUSH1 0x20 PUSH1 0x0 KECCAK256 PUSH1 0x1F DUP6 ADD PUSH1 0x5 SHR DUP2 ADD PUSH1 0x20 DUP7 LT ISZERO PUSH3 0x299 JUMPI POP DUP1 JUMPDEST PUSH1 0x1F DUP6 ADD PUSH1 0x5 SHR DUP3 ADD SWAP2 POP JUMPDEST DUP2 DUP2 LT ISZERO PUSH3 0x2BA JUMPI DUP3 DUP2 SSTORE PUSH1 0x1 ADD PUSH3 0x2A5 JUMP JUMPDEST POP POP POP JUMPDEST POP POP POP JUMP JUMPDEST DUP2 MLOAD PUSH1 0x1 PUSH1 0x1 PUSH1 0x40 SHL SUB DUP2 GT ISZERO PUSH3 0x2DF JUMPI PUSH3 0x2DF PUSH3 0xBF JUMP JUMPDEST PUSH3 0x2F7 DUP2 PUSH3 0x2F0 DUP5 SLOAD PUSH3 0x232 JUMP JUMPDEST DUP5 PUSH3 0x26E JUMP JUMPDEST PUSH1 0x20 DUP1 PUSH1 0x1F DUP4 GT PUSH1 0x1 DUP2 EQ PUSH3 0x32F JUMPI PUSH1 0x0 DUP5 ISZERO PUSH3 0x316 JUMPI POP DUP6 DUP4 ADD MLOAD JUMPDEST PUSH1 0x0 NOT PUSH1 0x3 DUP7 SWAP1 SHL SHR NOT AND PUSH1 0x1 DUP6 SWAP1 SHL OR DUP6 SSTORE PUSH3 0x2BA JUMP JUMPDEST PUSH1 0x0 DUP6 DUP2 MSTORE PUSH1 0x20 DUP2 KECCAK256 PUSH1 0x1F NOT DUP7 AND SWAP2 JUMPDEST DUP3 DUP2 LT ISZERO PUSH3 0x360 JUMPI DUP9 DUP7 ADD MLOAD DUP3 SSTORE SWAP5 DUP5 ADD SWAP5 PUSH1 0x1 SWAP1 SWAP2 ADD SWAP1 DUP5 ADD PUSH3 0x33F JUMP JUMPDEST POP DUP6 DUP3 LT ISZERO PUSH3 0x37F JUMPI DUP8 DUP6 ADD MLOAD PUSH1 0x0 NOT PUSH1 0x3 DUP9 SWAP1 SHL PUSH1 0xF8 AND SHR NOT AND DUP2 SSTORE JUMPDEST POP POP POP POP POP PUSH1 0x1 SWAP1 DUP2 SHL ADD SWAP1 SSTORE POP JUMP JUMPDEST PUSH2 0x118A DUP1 PUSH3 0x39F PUSH1 0x0 CODECOPY PUSH1 0x0 RETURN INVALID PUSH1 0x80 PUSH1 0x40 MSTORE CALLVALUE DUP1 ISZERO PUSH2 0x10 JUMPI PUSH1 0x0 DUP1 REVERT JUMPDEST POP PUSH1 0x4 CALLDATASIZE LT PUSH2 0x158 JUMPI PUSH1 0x0 CALLDATALOAD PUSH1 0xE0 SHR DUP1 PUSH4 0x90825C28 GT PUSH2 0xC3 JUMPI DUP1 PUSH4 0xBF333F2C GT PUSH2 0x7C JUMPI DUP1 PUSH4 0xBF333F2C EQ PUSH2 0x2BE JUMPI DUP1 PUSH4 0xCC3CBD2A EQ PUSH2 0x2C6 JUMPI DUP1 PUSH4 0xD642AA02 EQ PUSH2 0x2CE JUMPI DUP1 PUSH4 0xD96A094A EQ PUSH2 0x2D6 JUMPI DUP1 PUSH4 0xDD62ED3E EQ PUSH2 0x2EB JUMPI DUP1 PUSH4 0xE4849B32 EQ PUSH2 0x324 JUMPI PUSH1 0x0 DUP1 REVERT JUMPDEST DUP1 PUSH4 0x90825C28 EQ PUSH2 0x271 JUMPI DUP1 PUSH4 0x95D89B41 EQ PUSH2 0x279 JUMPI DUP1 PUSH4 0x98D5FDCA EQ PUSH2 0x281 JUMPI DUP1 PUSH4 0xA3B25877 EQ PUSH2 0x289 JUMPI DUP1 PUSH4 0xA9059CBB EQ PUSH2 0x298 JUMPI DUP1 PUSH4 0xB390452C EQ PUSH2 0x2AB JUMPI PUSH1 0x0 DUP1 REVERT JUMPDEST DUP1 PUSH4 0x249D39E9 GT PUSH2 0x115 JUMPI DUP1 PUSH4 0x249D39E9 EQ PUSH2 0x201 JUMPI DUP1 PUSH4 0x313CE567 EQ PUSH2 0x20A JUMPI DUP1 PUSH4 0x3E413BEE EQ PUSH2 0x219 JUMPI DUP1 PUSH4 0x61D027B3 EQ PUSH2 0x22C JUMPI DUP1 PUSH4 0x646C2E33 EQ PUSH2 0x23F JUMPI DUP1 PUSH4 0x70A08231 EQ PUSH2 0x248 JUMPI PUSH1 0x0 DUP1 REVERT JUMPDEST DUP1 PUSH4 0x2D05D3F EQ PUSH2 0x15D JUMPI DUP1 PUSH4 0x6FDDE03 EQ PUSH2 0x18D JUMPI DUP1 PUSH4 0x812530E EQ PUSH2 0x1A2 JUMPI DUP1 PUSH4 0x95EA7B3 EQ PUSH2 0x1C3 JUMPI DUP1 PUSH4 0x18160DDD EQ PUSH2 0x1E6 JUMPI DUP1 PUSH4 0x23B872DD EQ PUSH2 0x1EE JUMPI JUMPDEST PUSH1 0x0 DUP1 REVERT JUMPDEST PUSH1 0x5 SLOAD PUSH2 0x170 SWAP1 PUSH1 0x1 PUSH1 0x1 PUSH1 0xA0 SHL SUB AND DUP2 JUMP JUMPDEST PUSH1 0x40 MLOAD PUSH1 0x1 PUSH1 0x1 PUSH1 0xA0 SHL SUB SWAP1 SWAP2 AND DUP2 MSTORE PUSH1 0x20 ADD JUMPDEST PUSH1 0x40 MLOAD DUP1 SWAP2 SUB SWAP1 RETURN JUMPDEST PUSH2 0x195 PUSH2 0x337 JUMP JUMPDEST PUSH1 0x40 MLOAD PUSH2 0x184 SWAP2 SWAP1 PUSH2 0xF4A JUMP JUMPDEST PUSH2 0x1B5 PUSH2 0x1B0 CALLDATASIZE PUSH1 0x4 PUSH2 0xF99 JUMP JUMPDEST PUSH2 0x3C9 JUMP JUMPDEST PUSH1 0x40 MLOAD SWAP1 DUP2 MSTORE PUSH1 0x20 ADD PUSH2 0x184 JUMP JUMPDEST PUSH2 0x1D6 PUSH2 0x1D1 CALLDATASIZE PUSH1 0x4 PUSH2 0xFCE JUMP JUMPDEST PUSH2 0x48B JUMP JUMPDEST PUSH1 0x40 MLOAD SWAP1 ISZERO ISZERO DUP2 MSTORE PUSH1 0x20 ADD PUSH2 0x184 JUMP JUMPDEST PUSH1 0x2 SLOAD PUSH2 0x1B5 JUMP JUMPDEST PUSH2 0x1D6 PUSH2 0x1FC CALLDATASIZE PUSH1 0x4 PUSH2 0xFF8 JUMP JUMPDEST PUSH2 0x4A5 JUMP JUMPDEST PUSH2 0x1B5 PUSH2 0x2710 DUP2 JUMP JUMPDEST PUSH1 0x40 MLOAD PUSH1 0x12 DUP2 MSTORE PUSH1 0x20 ADD PUSH2 0x184 JUMP JUMPDEST PUSH1 0x7 SLOAD PUSH2 0x170 SWAP1 PUSH1 0x1 PUSH1 0x1 PUSH1 0xA0 SHL SUB AND DUP2 JUMP JUMPDEST PUSH1 0x8 SLOAD PUSH2 0x170 SWAP1 PUSH1 0x1 PUSH1 0x1 PUSH1 0xA0 SHL SUB AND DUP2 JUMP JUMPDEST PUSH2 0x1B5 PUSH1 0x6 SLOAD DUP2 JUMP JUMPDEST PUSH2 0x1B5 PUSH2 0x256 CALLDATASIZE PUSH1 0x4 PUSH2 0x1034 JUMP JUMPDEST PUSH1 0x1 PUSH1 0x1 PUSH1 0xA0 SHL SUB AND PUSH1 0x0 SWAP1 DUP2 MSTORE PUSH1 0x20 DUP2 SWAP1 MSTORE PUSH1 0x40 SWAP1 KECCAK256 SLOAD SWAP1 JUMP JUMPDEST PUSH2 0x1B5 PUSH2 0x4C9 JUMP JUMPDEST PUSH2 0x195 PUSH2 0x4FE JUMP JUMPDEST PUSH2 0x1B5 PUSH2 0x50D JUMP JUMPDEST PUSH2 0x1B5 PUSH8 0xDE0B6B3A7640000 DUP2 JUMP JUMPDEST PUSH2 0x1D6 PUSH2 0x2A6 CALLDATASIZE PUSH1 0x4 PUSH2 0xFCE JUMP JUMPDEST PUSH2 0x54E JUMP JUMPDEST PUSH2 0x1B5 PUSH2 0x2B9 CALLDATASIZE PUSH1 0x4 PUSH2 0xF99 JUMP JUMPDEST PUSH2 0x55C JUMP JUMPDEST PUSH2 0x1B5 PUSH1 0xC8 DUP2 JUMP JUMPDEST PUSH2 0x1B5 PUSH1 0x96 DUP2 JUMP JUMPDEST PUSH2 0x1B5 PUSH1 0x32 DUP2 JUMP JUMPDEST PUSH2 0x2E9 PUSH2 0x2E4 CALLDATASIZE PUSH1 0x4 PUSH2 0xF99 JUMP JUMPDEST PUSH2 0x5CE JUMP JUMPDEST STOP JUMPDEST PUSH2 0x1B5 PUSH2 0x2F9 CALLDATASIZE PUSH1 0x4 PUSH2 0x1056 JUMP JUMPDEST PUSH1 0x1 PUSH1 0x1 PUSH1 0xA0 SHL SUB SWAP2 DUP3 AND PUSH1 0x0 SWAP1 DUP2 MSTORE PUSH1 0x1 PUSH1 0x20 SWAP1 DUP2 MSTORE PUSH1 0x40 DUP1 DUP4 KECCAK256 SWAP4 SWAP1 SWAP5 AND DUP3 MSTORE SWAP2 SWAP1 SWAP2 MSTORE KECCAK256 SLOAD SWAP1 JUMP JUMPDEST PUSH2 0x2E9 PUSH2 0x332 CALLDATASIZE PUSH1 0x4 PUSH2 0xF99 JUMP JUMPDEST PUSH2 0x872 JUMP JUMPDEST PUSH1 0x60 PUSH1 0x3 DUP1 SLOAD PUSH2 0x346 SWAP1 PUSH2 0x1089 JUMP JUMPDEST DUP1 PUSH1 0x1F ADD PUSH1 0x20 DUP1 SWAP2 DIV MUL PUSH1 0x20 ADD PUSH1 0x40 MLOAD SWAP1 DUP2 ADD PUSH1 0x40 MSTORE DUP1 SWAP3 SWAP2 SWAP1 DUP2 DUP2 MSTORE PUSH1 0x20 ADD DUP3 DUP1 SLOAD PUSH2 0x372 SWAP1 PUSH2 0x1089 JUMP JUMPDEST DUP1 ISZERO PUSH2 0x3BF JUMPI DUP1 PUSH1 0x1F LT PUSH2 0x394 JUMPI PUSH2 0x100 DUP1 DUP4 SLOAD DIV MUL DUP4 MSTORE SWAP2 PUSH1 0x20 ADD SWAP2 PUSH2 0x3BF JUMP JUMPDEST DUP3 ADD SWAP2 SWAP1 PUSH1 0x0 MSTORE PUSH1 0x20 PUSH1 0x0 KECCAK256 SWAP1 JUMPDEST DUP2 SLOAD DUP2 MSTORE SWAP1 PUSH1 0x1 ADD SWAP1 PUSH1 0x20 ADD DUP1 DUP4 GT PUSH2 0x3A2 JUMPI DUP3 SWAP1 SUB PUSH1 0x1F AND DUP3 ADD SWAP2 JUMPDEST POP POP POP POP POP SWAP1 POP SWAP1 JUMP JUMPDEST PUSH1 0x0 DUP1 PUSH2 0x3D5 PUSH1 0x2 SLOAD SWAP1 JUMP JUMPDEST SWAP1 POP DUP1 DUP4 GT ISZERO PUSH2 0x41D JUMPI PUSH1 0x40 MLOAD PUSH3 0x461BCD PUSH1 0xE5 SHL DUP2 MSTORE PUSH1 0x20 PUSH1 0x4 DUP3 ADD MSTORE PUSH1 0xE PUSH1 0x24 DUP3 ADD MSTORE PUSH14 0x4578636565647320737570706C79 PUSH1 0x90 SHL PUSH1 0x44 DUP3 ADD MSTORE PUSH1 0x64 ADD JUMPDEST PUSH1 0x40 MLOAD DUP1 SWAP2 SUB SWAP1 REVERT JUMPDEST PUSH1 0x0 PUSH2 0x429 DUP5 DUP4 PUSH2 0x10D3 JUMP JUMPDEST SWAP1 POP PUSH1 0x0 PUSH8 0xDE0B6B3A7640000 PUSH2 0x440 DUP4 DUP1 PUSH2 0x10E6 JUMP JUMPDEST PUSH2 0x44A DUP6 DUP1 PUSH2 0x10E6 JUMP JUMPDEST PUSH2 0x454 SWAP2 SWAP1 PUSH2 0x10D3 JUMP JUMPDEST PUSH2 0x45E SWAP2 SWAP1 PUSH2 0x10FD JUMP JUMPDEST SWAP1 POP PUSH2 0x2710 PUSH2 0x46E PUSH1 0xC8 DUP3 PUSH2 0x10D3 JUMP JUMPDEST PUSH2 0x478 SWAP1 DUP4 PUSH2 0x10E6 JUMP JUMPDEST PUSH2 0x482 SWAP2 SWAP1 PUSH2 0x10FD JUMP JUMPDEST SWAP6 SWAP5 POP POP POP POP POP JUMP JUMPDEST PUSH1 0x0 CALLER PUSH2 0x499 DUP2 DUP6 DUP6 PUSH2 0xB81 JUMP JUMPDEST PUSH1 0x1 SWAP2 POP POP JUMPDEST SWAP3 SWAP2 POP POP JUMP JUMPDEST PUSH1 0x0 CALLER PUSH2 0x4B3 DUP6 DUP3 DUP6 PUSH2 0xB93 JUMP JUMPDEST PUSH2 0x4BE DUP6 DUP6 DUP6 PUSH2 0xC12 JUMP JUMPDEST POP PUSH1 0x1 SWAP5 SWAP4 POP POP POP POP JUMP JUMPDEST PUSH1 0x0 PUSH8 0xDE0B6B3A7640000 PUSH2 0x4DD PUSH1 0x2 SLOAD SWAP1 JUMP JUMPDEST PUSH2 0x4E5 PUSH2 0x50D JUMP JUMPDEST PUSH2 0x4EF SWAP2 SWAP1 PUSH2 0x10E6 JUMP JUMPDEST PUSH2 0x4F9 SWAP2 SWAP1 PUSH2 0x10FD JUMP JUMPDEST SWAP1 POP SWAP1 JUMP JUMPDEST PUSH1 0x60 PUSH1 0x4 DUP1 SLOAD PUSH2 0x346 SWAP1 PUSH2 0x1089 JUMP JUMPDEST PUSH1 0x0 DUP1 PUSH2 0x519 PUSH1 0x2 SLOAD SWAP1 JUMP JUMPDEST SWAP1 POP DUP1 PUSH1 0x0 SUB PUSH2 0x52B JUMPI PUSH1 0x1 SWAP2 POP POP SWAP1 JUMP JUMPDEST PUSH8 0xDE0B6B3A7640000 PUSH2 0x53E DUP3 DUP1 PUSH2 0x10E6 JUMP JUMPDEST PUSH2 0x548 SWAP2 SWAP1 PUSH2 0x10FD JUMP JUMPDEST SWAP2 POP POP SWAP1 JUMP JUMPDEST PUSH1 0x0 CALLER PUSH2 0x499 DUP2 DUP6 DUP6 PUSH2 0xC12 JUMP JUMPDEST PUSH1 0x0 DUP1 PUSH2 0x2710 PUSH2 0x56D PUSH1 0xC8 DUP3 PUSH2 0x10D3 JUMP JUMPDEST PUSH2 0x577 SWAP1 DUP6 PUSH2 0x10E6 JUMP JUMPDEST PUSH2 0x581 SWAP2 SWAP1 PUSH2 0x10FD JUMP JUMPDEST SWAP1 POP PUSH1 0x0 PUSH2 0x58E PUSH1 0x2 SLOAD SWAP1 JUMP JUMPDEST SWAP1 POP PUSH1 0x0 PUSH2 0x5A4 PUSH8 0xDE0B6B3A7640000 DUP5 PUSH2 0x10E6 JUMP JUMPDEST PUSH2 0x5AE DUP4 DUP1 PUSH2 0x10E6 JUMP JUMPDEST PUSH2 0x5B8 SWAP2 SWAP1 PUSH2 0x111F JUMP JUMPDEST SWAP1 POP DUP2 PUSH2 0x5C4 DUP3 PUSH2 0xC71 JUMP JUMPDEST PUSH2 0x482 SWAP2 SWAP1 PUSH2 0x10D3 JUMP JUMPDEST PUSH1 0x0 DUP2 GT PUSH2 0x60C JUMPI PUSH1 0x40 MLOAD PUSH3 0x461BCD PUSH1 0xE5 SHL DUP2 MSTORE PUSH1 0x20 PUSH1 0x4 DUP3 ADD MSTORE PUSH1 0xB PUSH1 0x24 DUP3 ADD MSTORE PUSH11 0x16995C9BC8185B5BDD5B9D PUSH1 0xAA SHL PUSH1 0x44 DUP3 ADD MSTORE PUSH1 0x64 ADD PUSH2 0x414 JUMP JUMPDEST PUSH1 0x0 PUSH2 0x617 DUP3 PUSH2 0x55C JUMP JUMPDEST SWAP1 POP PUSH1 0x0 DUP2 GT PUSH2 0x655 JUMPI PUSH1 0x40 MLOAD PUSH3 0x461BCD PUSH1 0xE5 SHL DUP2 MSTORE PUSH1 0x20 PUSH1 0x4 DUP3 ADD MSTORE PUSH1 0x9 PUSH1 0x24 DUP3 ADD MSTORE PUSH9 0x151BDBC81CDB585B1B PUSH1 0xBA SHL PUSH1 0x44 DUP3 ADD MSTORE PUSH1 0x64 ADD PUSH2 0x414 JUMP JUMPDEST PUSH1 0x7 SLOAD PUSH1 0x40 MLOAD PUSH4 0x23B872DD PUSH1 0xE0 SHL DUP2 MSTORE CALLER PUSH1 0x4 DUP3 ADD MSTORE ADDRESS PUSH1 0x24 DUP3 ADD MSTORE PUSH1 0x44 DUP2 ADD DUP5 SWAP1 MSTORE PUSH1 0x1 PUSH1 0x1 PUSH1 0xA0 SHL SUB SWAP1 SWAP2 AND SWAP1 PUSH4 0x23B872DD SWAP1 PUSH1 0x64 ADD PUSH1 0x20 PUSH1 0x40 MLOAD DUP1 DUP4 SUB DUP2 PUSH1 0x0 DUP8 GAS CALL ISZERO DUP1 ISZERO PUSH2 0x6AC JUMPI RETURNDATASIZE PUSH1 0x0 DUP1 RETURNDATACOPY RETURNDATASIZE PUSH1 0x0 REVERT JUMPDEST POP POP POP POP PUSH1 0x40 MLOAD RETURNDATASIZE PUSH1 0x1F NOT PUSH1 0x1F DUP3 ADD AND DUP3 ADD DUP1 PUSH1 0x40 MSTORE POP DUP2 ADD SWAP1 PUSH2 0x6D0 SWAP2 SWAP1 PUSH2 0x1132 JUMP JUMPDEST POP PUSH1 0x0 PUSH2 0x2710 PUSH2 0x6E1 PUSH1 0x96 DUP6 PUSH2 0x10E6 JUMP JUMPDEST PUSH2 0x6EB SWAP2 SWAP1 PUSH2 0x10FD JUMP JUMPDEST SWAP1 POP PUSH1 0x0 PUSH2 0x2710 PUSH2 0x6FD PUSH1 0x32 DUP7 PUSH2 0x10E6 JUMP JUMPDEST PUSH2 0x707 SWAP2 SWAP1 PUSH2 0x10FD JUMP JUMPDEST PUSH1 0x7 SLOAD PUSH1 0x5 SLOAD PUSH1 0x40 MLOAD PUSH4 0xA9059CBB PUSH1 0xE0 SHL DUP2 MSTORE PUSH1 0x1 PUSH1 0x1 PUSH1 0xA0 SHL SUB SWAP2 DUP3 AND PUSH1 0x4 DUP3 ADD MSTORE PUSH1 0x24 DUP2 ADD DUP7 SWAP1 MSTORE SWAP3 SWAP4 POP AND SWAP1 PUSH4 0xA9059CBB SWAP1 PUSH1 0x44 ADD PUSH1 0x20 PUSH1 0x40 MLOAD DUP1 DUP4 SUB DUP2 PUSH1 0x0 DUP8 GAS CALL ISZERO DUP1 ISZERO PUSH2 0x75E JUMPI RETURNDATASIZE PUSH1 0x0 DUP1 RETURNDATACOPY RETURNDATASIZE PUSH1 0x0 REVERT JUMPDEST POP POP POP POP PUSH1 0x40 MLOAD RETURNDATASIZE PUSH1 0x1F NOT PUSH1 0x1F DUP3 ADD AND DUP3 ADD DUP1 PUSH1 0x40 MSTORE POP DUP2 ADD SWAP1 PUSH2 0x782 SWAP2 SWAP1 PUSH2 0x1132 JUMP JUMPDEST POP PUSH1 0x7 SLOAD PUSH1 0x8 SLOAD PUSH1 0x40 MLOAD PUSH4 0xA9059CBB PUSH1 0xE0 SHL DUP2 MSTORE PUSH1 0x1 PUSH1 0x1 PUSH1 0xA0 SHL SUB SWAP2 DUP3 AND PUSH1 0x4 DUP3 ADD MSTORE PUSH1 0x24 DUP2 ADD DUP5 SWAP1 MSTORE SWAP2 AND SWAP1 PUSH4 0xA9059CBB SWAP1 PUSH1 0x44 ADD PUSH1 0x20 PUSH1 0x40 MLOAD DUP1 DUP4 SUB DUP2 PUSH1 0x0 DUP8 GAS CALL ISZERO DUP1 ISZERO PUSH2 0x7D8 JUMPI RETURNDATASIZE PUSH1 0x0 DUP1 RETURNDATACOPY RETURNDATASIZE PUSH1 0x0 REVERT JUMPDEST POP POP POP POP PUSH1 0x40 MLOAD RETURNDATASIZE PUSH1 0x1F NOT PUSH1 0x1F DUP3 ADD AND DUP3 ADD DUP1 PUSH1 0x40 MSTORE POP DUP2 ADD SWAP1 PUSH2 0x7FC SWAP2 SWAP1 PUSH2 0x1132 JUMP JUMPDEST POP PUSH2 0x807 CALLER DUP5 PUSH2 0xCDB JUMP JUMPDEST CALLER PUSH32 0xD6F8407DAC4690D12753A73F26A42162A8D8B88471604B5D23B72F5BE082CF4 DUP6 DUP6 PUSH2 0x833 PUSH2 0x50D JUMP JUMPDEST PUSH1 0x40 DUP1 MLOAD PUSH1 0x80 DUP1 DUP3 MSTORE PUSH1 0x3 SWAP1 DUP3 ADD MSTORE PUSH3 0x627579 PUSH1 0xE8 SHL PUSH1 0xA0 DUP3 ADD MSTORE PUSH1 0x20 DUP2 ADD SWAP5 SWAP1 SWAP5 MSTORE DUP4 ADD SWAP2 SWAP1 SWAP2 MSTORE PUSH1 0x60 DUP3 ADD MSTORE PUSH1 0xC0 ADD PUSH1 0x40 MLOAD DUP1 SWAP2 SUB SWAP1 LOG2 POP POP POP POP JUMP JUMPDEST PUSH1 0x0 DUP2 GT PUSH2 0x8B0 JUMPI PUSH1 0x40 MLOAD PUSH3 0x461BCD PUSH1 0xE5 SHL DUP2 MSTORE PUSH1 0x20 PUSH1 0x4 DUP3 ADD MSTORE PUSH1 0xB PUSH1 0x24 DUP3 ADD MSTORE PUSH11 0x16995C9BC8185B5BDD5B9D PUSH1 0xAA SHL PUSH1 0x44 DUP3 ADD MSTORE PUSH1 0x64 ADD PUSH2 0x414 JUMP JUMPDEST CALLER PUSH1 0x0 SWAP1 DUP2 MSTORE PUSH1 0x20 DUP2 SWAP1 MSTORE PUSH1 0x40 SWAP1 KECCAK256 SLOAD DUP2 GT ISZERO PUSH2 0x906 JUMPI PUSH1 0x40 MLOAD PUSH3 0x461BCD PUSH1 0xE5 SHL DUP2 MSTORE PUSH1 0x20 PUSH1 0x4 DUP3 ADD MSTORE PUSH1 0x14 PUSH1 0x24 DUP3 ADD MSTORE PUSH20 0x496E73756666696369656E742062616C616E6365 PUSH1 0x60 SHL PUSH1 0x44 DUP3 ADD MSTORE PUSH1 0x64 ADD PUSH2 0x414 JUMP JUMPDEST PUSH1 0x0 PUSH2 0x911 DUP3 PUSH2 0x3C9 JUMP JUMPDEST SWAP1 POP PUSH1 0x0 DUP2 GT PUSH2 0x94F JUMPI PUSH1 0x40 MLOAD PUSH3 0x461BCD PUSH1 0xE5 SHL DUP2 MSTORE PUSH1 0x20 PUSH1 0x4 DUP3 ADD MSTORE PUSH1 0x9 PUSH1 0x24 DUP3 ADD MSTORE PUSH9 0x151BDBC81CDB585B1B PUSH1 0xBA SHL PUSH1 0x44 DUP3 ADD MSTORE PUSH1 0x64 ADD PUSH2 0x414 JUMP JUMPDEST PUSH2 0x959 CALLER DUP4 PUSH2 0xD15 JUMP JUMPDEST PUSH1 0x0 PUSH2 0x2710 PUSH2 0x969 PUSH1 0x96 DUP5 PUSH2 0x10E6 JUMP JUMPDEST PUSH2 0x973 SWAP2 SWAP1 PUSH2 0x10FD JUMP JUMPDEST SWAP1 POP PUSH1 0x0 PUSH2 0x2710 PUSH2 0x985 PUSH1 0x32 DUP6 PUSH2 0x10E6 JUMP JUMPDEST PUSH2 0x98F SWAP2 SWAP1 PUSH2 0x10FD JUMP JUMPDEST SWAP1 POP PUSH1 0x0 DUP2 PUSH2 0x99E DUP5 DUP7 PUSH2 0x10D3 JUMP JUMPDEST PUSH2 0x9A8 SWAP2 SWAP1 PUSH2 0x10D3 JUMP JUMPDEST PUSH1 0x7 SLOAD PUSH1 0x5 SLOAD PUSH1 0x40 MLOAD PUSH4 0xA9059CBB PUSH1 0xE0 SHL DUP2 MSTORE PUSH1 0x1 PUSH1 0x1 PUSH1 0xA0 SHL SUB SWAP2 DUP3 AND PUSH1 0x4 DUP3 ADD MSTORE PUSH1 0x24 DUP2 ADD DUP8 SWAP1 MSTORE SWAP3 SWAP4 POP AND SWAP1 PUSH4 0xA9059CBB SWAP1 PUSH1 0x44 ADD PUSH1 0x20 PUSH1 0x40 MLOAD DUP1 DUP4 SUB DUP2 PUSH1 0x0 DUP8 GAS CALL ISZERO DUP1 ISZERO PUSH2 0x9FF JUMPI RETURNDATASIZE PUSH1 0x0 DUP1 RETURNDATACOPY RETURNDATASIZE PUSH1 0x0 REVERT JUMPDEST POP POP POP POP PUSH1 0x40 MLOAD RETURNDATASIZE PUSH1 0x1F NOT PUSH1 0x1F DUP3 ADD AND DUP3 ADD DUP1 PUSH1 0x40 MSTORE POP DUP2 ADD SWAP1 PUSH2 0xA23 SWAP2 SWAP1 PUSH2 0x1132 JUMP JUMPDEST POP PUSH1 0x7 SLOAD PUSH1 0x8 SLOAD PUSH1 0x40 MLOAD PUSH4 0xA9059CBB PUSH1 0xE0 SHL DUP2 MSTORE PUSH1 0x1 PUSH1 0x1 PUSH1 0xA0 SHL SUB SWAP2 DUP3 AND PUSH1 0x4 DUP3 ADD MSTORE PUSH1 0x24 DUP2 ADD DUP6 SWAP1 MSTORE SWAP2 AND SWAP1 PUSH4 0xA9059CBB SWAP1 PUSH1 0x44 ADD PUSH1 0x20 PUSH1 0x40 MLOAD DUP1 DUP4 SUB DUP2 PUSH1 0x0 DUP8 GAS CALL ISZERO DUP1 ISZERO PUSH2 0xA79 JUMPI RETURNDATASIZE PUSH1 0x0 DUP1 RETURNDATACOPY RETURNDATASIZE PUSH1 0x0 REVERT JUMPDEST POP POP POP POP PUSH1 0x40 MLOAD RETURNDATASIZE PUSH1 0x1F NOT PUSH1 0x1F DUP3 ADD AND DUP3 ADD DUP1 PUSH1 0x40 MSTORE POP DUP2 ADD SWAP1 PUSH2 0xA9D SWAP2 SWAP1 PUSH2 0x1132 JUMP JUMPDEST POP PUSH1 0x7 SLOAD PUSH1 0x40 MLOAD PUSH4 0xA9059CBB PUSH1 0xE0 SHL DUP2 MSTORE CALLER PUSH1 0x4 DUP3 ADD MSTORE PUSH1 0x24 DUP2 ADD DUP4 SWAP1 MSTORE PUSH1 0x1 PUSH1 0x1 PUSH1 0xA0 SHL SUB SWAP1 SWAP2 AND SWAP1 PUSH4 0xA9059CBB SWAP1 PUSH1 0x44 ADD PUSH1 0x20 PUSH1 0x40 MLOAD DUP1 DUP4 SUB DUP2 PUSH1 0x0 DUP8 GAS CALL ISZERO DUP1 ISZERO PUSH2 0xAEF JUMPI RETURNDATASIZE PUSH1 0x0 DUP1 RETURNDATACOPY RETURNDATASIZE PUSH1 0x0 REVERT JUMPDEST POP POP POP POP PUSH1 0x40 MLOAD RETURNDATASIZE PUSH1 0x1F NOT PUSH1 0x1F DUP3 ADD AND DUP3 ADD DUP1 PUSH1 0x40 MSTORE POP DUP2 ADD SWAP1 PUSH2 0xB13 SWAP2 SWAP1 PUSH2 0x1132 JUMP JUMPDEST POP CALLER PUSH32 0xD6F8407DAC4690D12753A73F26A42162A8D8B88471604B5D23B72F5BE082CF4 DUP6 DUP8 PUSH2 0xB40 PUSH2 0x50D JUMP JUMPDEST PUSH1 0x40 DUP1 MLOAD PUSH1 0x80 DUP1 DUP3 MSTORE PUSH1 0x4 SWAP1 DUP3 ADD MSTORE PUSH4 0x1CD95B1B PUSH1 0xE2 SHL PUSH1 0xA0 DUP3 ADD MSTORE PUSH1 0x20 DUP2 ADD SWAP5 SWAP1 SWAP5 MSTORE DUP4 ADD SWAP2 SWAP1 SWAP2 MSTORE PUSH1 0x60 DUP3 ADD MSTORE PUSH1 0xC0 ADD PUSH1 0x40 MLOAD DUP1 SWAP2 SUB SWAP1 LOG2 POP POP POP POP POP JUMP JUMPDEST PUSH2 0xB8E DUP4 DUP4 DUP4 PUSH1 0x1 PUSH2 0xD4B JUMP JUMPDEST POP POP POP JUMP JUMPDEST PUSH1 0x1 PUSH1 0x1 PUSH1 0xA0 SHL SUB DUP4 DUP2 AND PUSH1 0x0 SWAP1 DUP2 MSTORE PUSH1 0x1 PUSH1 0x20 SWAP1 DUP2 MSTORE PUSH1 0x40 DUP1 DUP4 KECCAK256 SWAP4 DUP7 AND DUP4 MSTORE SWAP3 SWAP1 MSTORE KECCAK256 SLOAD PUSH1 0x0 NOT DUP2 LT ISZERO PUSH2 0xC0C JUMPI DUP2 DUP2 LT ISZERO PUSH2 0xBFD JUMPI PUSH1 0x40 MLOAD PUSH4 0x7DC7A0D9 PUSH1 0xE1 SHL DUP2 MSTORE PUSH1 0x1 PUSH1 0x1 PUSH1 0xA0 SHL SUB DUP5 AND PUSH1 0x4 DUP3 ADD MSTORE PUSH1 0x24 DUP2 ADD DUP3 SWAP1 MSTORE PUSH1 0x44 DUP2 ADD DUP4 SWAP1 MSTORE PUSH1 0x64 ADD PUSH2 0x414 JUMP JUMPDEST PUSH2 0xC0C DUP5 DUP5 DUP5 DUP5 SUB PUSH1 0x0 PUSH2 0xD4B JUMP JUMPDEST POP POP POP POP JUMP JUMPDEST PUSH1 0x1 PUSH1 0x1 PUSH1 0xA0 SHL SUB DUP4 AND PUSH2 0xC3C JUMPI PUSH1 0x40 MLOAD PUSH4 0x4B637E8F PUSH1 0xE1 SHL DUP2 MSTORE PUSH1 0x0 PUSH1 0x4 DUP3 ADD MSTORE PUSH1 0x24 ADD PUSH2 0x414 JUMP JUMPDEST PUSH1 0x1 PUSH1 0x1 PUSH1 0xA0 SHL SUB DUP3 AND PUSH2 0xC66 JUMPI PUSH1 0x40 MLOAD PUSH4 0xEC442F05 PUSH1 0xE0 SHL DUP2 MSTORE PUSH1 0x0 PUSH1 0x4 DUP3 ADD MSTORE PUSH1 0x24 ADD PUSH2 0x414 JUMP JUMPDEST PUSH2 0xB8E DUP4 DUP4 DUP4 PUSH2 0xE20 JUMP JUMPDEST PUSH1 0x0 DUP2 PUSH1 0x0 SUB PUSH2 0xC83 JUMPI POP PUSH1 0x0 SWAP2 SWAP1 POP JUMP JUMPDEST PUSH1 0x0 PUSH1 0x2 PUSH2 0xC92 DUP5 PUSH1 0x1 PUSH2 0x111F JUMP JUMPDEST PUSH2 0xC9C SWAP2 SWAP1 PUSH2 0x10FD JUMP JUMPDEST SWAP1 POP DUP3 SWAP2 POP JUMPDEST DUP2 DUP2 LT ISZERO PUSH2 0xCD5 JUMPI SWAP1 POP DUP1 PUSH1 0x2 DUP2 PUSH2 0xCBA DUP2 DUP7 PUSH2 0x10FD JUMP JUMPDEST PUSH2 0xCC4 SWAP2 SWAP1 PUSH2 0x111F JUMP JUMPDEST PUSH2 0xCCE SWAP2 SWAP1 PUSH2 0x10FD JUMP JUMPDEST SWAP1 POP PUSH2 0xCA2 JUMP JUMPDEST POP SWAP2 SWAP1 POP JUMP JUMPDEST PUSH1 0x1 PUSH1 0x1 PUSH1 0xA0 SHL SUB DUP3 AND PUSH2 0xD05 JUMPI PUSH1 0x40 MLOAD PUSH4 0xEC442F05 PUSH1 0xE0 SHL DUP2 MSTORE PUSH1 0x0 PUSH1 0x4 DUP3 ADD MSTORE PUSH1 0x24 ADD PUSH2 0x414 JUMP JUMPDEST PUSH2 0xD11 PUSH1 0x0 DUP4 DUP4 PUSH2 0xE20 JUMP JUMPDEST POP POP JUMP JUMPDEST PUSH1 0x1 PUSH1 0x1 PUSH1 0xA0 SHL SUB DUP3 AND PUSH2 0xD3F JUMPI PUSH1 0x40 MLOAD PUSH4 0x4B637E8F PUSH1 0xE1 SHL DUP2 MSTORE PUSH1 0x0 PUSH1 0x4 DUP3 ADD MSTORE PUSH1 0x24 ADD PUSH2 0x414 JUMP JUMPDEST PUSH2 0xD11 DUP3 PUSH1 0x0 DUP4 PUSH2 0xE20 JUMP JUMPDEST PUSH1 0x1 PUSH1 0x1 PUSH1 0xA0 SHL SUB DUP5 AND PUSH2 0xD75 JUMPI PUSH1 0x40 MLOAD PUSH4 0xE602DF05 PUSH1 0xE0 SHL DUP2 MSTORE PUSH1 0x0 PUSH1 0x4 DUP3 ADD MSTORE PUSH1 0x24 ADD PUSH2 0x414 JUMP JUMPDEST PUSH1 0x1 PUSH1 0x1 PUSH1 0xA0 SHL SUB DUP4 AND PUSH2 0xD9F JUMPI PUSH1 0x40 MLOAD PUSH4 0x4A1406B1 PUSH1 0xE1 SHL DUP2 MSTORE PUSH1 0x0 PUSH1 0x4 DUP3 ADD MSTORE PUSH1 0x24 ADD PUSH2 0x414 JUMP JUMPDEST PUSH1 0x1 PUSH1 0x1 PUSH1 0xA0 SHL SUB DUP1 DUP6 AND PUSH1 0x0 SWAP1 DUP2 MSTORE PUSH1 0x1 PUSH1 0x20 SWAP1 DUP2 MSTORE PUSH1 0x40 DUP1 DUP4 KECCAK256 SWAP4 DUP8 AND DUP4 MSTORE SWAP3 SWAP1 MSTORE KECCAK256 DUP3 SWAP1 SSTORE DUP1 ISZERO PUSH2 0xC0C JUMPI DUP3 PUSH1 0x1 PUSH1 0x1 PUSH1 0xA0 SHL SUB AND DUP5 PUSH1 0x1 PUSH1 0x1 PUSH1 0xA0 SHL SUB AND PUSH32 0x8C5BE1E5EBEC7D5BD14F71427D1E84F3DD0314C0F7B2291E5B200AC8C7C3B925 DUP5 PUSH1 0x40 MLOAD PUSH2 0xE12 SWAP2 DUP2 MSTORE PUSH1 0x20 ADD SWAP1 JUMP JUMPDEST PUSH1 0x40 MLOAD DUP1 SWAP2 SUB SWAP1 LOG3 POP POP POP POP JUMP JUMPDEST PUSH1 0x1 PUSH1 0x1 PUSH1 0xA0 SHL SUB DUP4 AND PUSH2 0xE4B JUMPI DUP1 PUSH1 0x2 PUSH1 0x0 DUP3 DUP3 SLOAD PUSH2 0xE40 SWAP2 SWAP1 PUSH2 0x111F JUMP JUMPDEST SWAP1 SWAP2 SSTORE POP PUSH2 0xEBD SWAP1 POP JUMP JUMPDEST PUSH1 0x1 PUSH1 0x1 PUSH1 0xA0 SHL SUB DUP4 AND PUSH1 0x0 SWAP1 DUP2 MSTORE PUSH1 0x20 DUP2 SWAP1 MSTORE PUSH1 0x40 SWAP1 KECCAK256 SLOAD DUP2 DUP2 LT ISZERO PUSH2 0xE9E JUMPI PUSH1 0x40 MLOAD PUSH4 0x391434E3 PUSH1 0xE2 SHL DUP2 MSTORE PUSH1 0x1 PUSH1 0x1 PUSH1 0xA0 SHL SUB DUP6 AND PUSH1 0x4 DUP3 ADD MSTORE PUSH1 0x24 DUP2 ADD DUP3 SWAP1 MSTORE PUSH1 0x44 DUP2 ADD DUP4 SWAP1 MSTORE PUSH1 0x64 ADD PUSH2 0x414 JUMP JUMPDEST PUSH1 0x1 PUSH1 0x1 PUSH1 0xA0 SHL SUB DUP5 AND PUSH1 0x0 SWAP1 DUP2 MSTORE PUSH1 0x20 DUP2 SWAP1 MSTORE PUSH1 0x40 SWAP1 KECCAK256 SWAP1 DUP3 SWAP1 SUB SWAP1 SSTORE JUMPDEST PUSH1 0x1 PUSH1 0x1 PUSH1 0xA0 SHL SUB DUP3 AND PUSH2 0xED9 JUMPI PUSH1 0x2 DUP1 SLOAD DUP3 SWAP1 SUB SWAP1 SSTORE PUSH2 0xEF8 JUMP JUMPDEST PUSH1 0x1 PUSH1 0x1 PUSH1 0xA0 SHL SUB DUP3 AND PUSH1 0x0 SWAP1 DUP2 MSTORE PUSH1 0x20 DUP2 SWAP1 MSTORE PUSH1 0x40 SWAP1 KECCAK256 DUP1 SLOAD DUP3 ADD SWAP1 SSTORE JUMPDEST DUP2 PUSH1 0x1 PUSH1 0x1 PUSH1 0xA0 SHL SUB AND DUP4 PUSH1 0x1 PUSH1 0x1 PUSH1 0xA0 SHL SUB AND PUSH32 0xDDF252AD1BE2C89B69C2B068FC378DAA952BA7F163C4A11628F55A4DF523B3EF DUP4 PUSH1 0x40 MLOAD PUSH2 0xF3D SWAP2 DUP2 MSTORE PUSH1 0x20 ADD SWAP1 JUMP JUMPDEST PUSH1 0x40 MLOAD DUP1 SWAP2 SUB SWAP1 LOG3 POP POP POP JUMP JUMPDEST PUSH1 0x0 PUSH1 0x20 DUP1 DUP4 MSTORE DUP4 MLOAD DUP1 PUSH1 0x20 DUP6 ADD MSTORE PUSH1 0x0 JUMPDEST DUP2 DUP2 LT ISZERO PUSH2 0xF78 JUMPI DUP6 DUP2 ADD DUP4 ADD MLOAD DUP6 DUP3 ADD PUSH1 0x40 ADD MSTORE DUP3 ADD PUSH2 0xF5C JUMP JUMPDEST POP PUSH1 0x0 PUSH1 0x40 DUP3 DUP7 ADD ADD MSTORE PUSH1 0x40 PUSH1 0x1F NOT PUSH1 0x1F DUP4 ADD AND DUP6 ADD ADD SWAP3 POP POP POP SWAP3 SWAP2 POP POP JUMP JUMPDEST PUSH1 0x0 PUSH1 0x20 DUP3 DUP5 SUB SLT ISZERO PUSH2 0xFAB JUMPI PUSH1 0x0 DUP1 REVERT JUMPDEST POP CALLDATALOAD SWAP2 SWAP1 POP JUMP JUMPDEST DUP1 CALLDATALOAD PUSH1 0x1 PUSH1 0x1 PUSH1 0xA0 SHL SUB DUP2 AND DUP2 EQ PUSH2 0xFC9 JUMPI PUSH1 0x0 DUP1 REVERT JUMPDEST SWAP2 SWAP1 POP JUMP JUMPDEST PUSH1 0x0 DUP1 PUSH1 0x40 DUP4 DUP6 SUB SLT ISZERO PUSH2 0xFE1 JUMPI PUSH1 0x0 DUP1 REVERT JUMPDEST PUSH2 0xFEA DUP4 PUSH2 0xFB2 JUMP JUMPDEST SWAP5 PUSH1 0x20 SWAP4 SWAP1 SWAP4 ADD CALLDATALOAD SWAP4 POP POP POP JUMP JUMPDEST PUSH1 0x0 DUP1 PUSH1 0x0 PUSH1 0x60 DUP5 DUP7 SUB SLT ISZERO PUSH2 0x100D JUMPI PUSH1 0x0 DUP1 REVERT JUMPDEST PUSH2 0x1016 DUP5 PUSH2 0xFB2 JUMP JUMPDEST SWAP3 POP PUSH2 0x1024 PUSH1 0x20 DUP6 ADD PUSH2 0xFB2 JUMP JUMPDEST SWAP2 POP PUSH1 0x40 DUP5 ADD CALLDATALOAD SWAP1 POP SWAP3 POP SWAP3 POP SWAP3 JUMP JUMPDEST PUSH1 0x0 PUSH1 0x20 DUP3 DUP5 SUB SLT ISZERO PUSH2 0x1046 JUMPI PUSH1 0x0 DUP1 REVERT JUMPDEST PUSH2 0x104F DUP3 PUSH2 0xFB2 JUMP JUMPDEST SWAP4 SWAP3 POP POP POP JUMP JUMPDEST PUSH1 0x0 DUP1 PUSH1 0x40 DUP4 DUP6 SUB SLT ISZERO PUSH2 0x1069 JUMPI PUSH1 0x0 DUP1 REVERT JUMPDEST PUSH2 0x1072 DUP4 PUSH2 0xFB2 JUMP JUMPDEST SWAP2 POP PUSH2 0x1080 PUSH1 0x20 DUP5 ADD PUSH2 0xFB2 JUMP JUMPDEST SWAP1 POP SWAP3 POP SWAP3 SWAP1 POP JUMP JUMPDEST PUSH1 0x1 DUP2 DUP2 SHR SWAP1 DUP3 AND DUP1 PUSH2 0x109D JUMPI PUSH1 0x7F DUP3 AND SWAP2 POP JUMPDEST PUSH1 0x20 DUP3 LT DUP2 SUB PUSH2 0xCD5 JUMPI PUSH4 0x4E487B71 PUSH1 0xE0 SHL PUSH1 0x0 MSTORE PUSH1 0x22 PUSH1 0x4 MSTORE PUSH1 0x24 PUSH1 0x0 REVERT JUMPDEST PUSH4 0x4E487B71 PUSH1 0xE0 SHL PUSH1 0x0 MSTORE PUSH1 0x11 PUSH1 0x4 MSTORE PUSH1 0x24 PUSH1 0x0 REVERT JUMPDEST DUP2 DUP2 SUB DUP2 DUP2 GT ISZERO PUSH2 0x49F JUMPI PUSH2 0x49F PUSH2 0x10BD JUMP JUMPDEST DUP1 DUP3 MUL DUP2 ISZERO DUP3 DUP3 DIV DUP5 EQ OR PUSH2 0x49F JUMPI PUSH2 0x49F PUSH2 0x10BD JUMP JUMPDEST PUSH1 0x0 DUP3 PUSH2 0x111A JUMPI PUSH4 0x4E487B71 PUSH1 0xE0 SHL PUSH1 0x0 MSTORE PUSH1 0x12 PUSH1 0x4 MSTORE PUSH1 0x24 PUSH1 0x0 REVERT JUMPDEST POP DIV SWAP1 JUMP JUMPDEST DUP1 DUP3 ADD DUP1 DUP3 GT ISZERO PUSH2 0x49F JUMPI PUSH2 0x49F PUSH2 0x10BD JUMP JUMPDEST PUSH1 0x0 PUSH1 0x20 DUP3 DUP5 SUB SLT ISZERO PUSH2 0x1144 JUMPI PUSH1 0x0 DUP1 REVERT JUMPDEST DUP2 MLOAD DUP1 ISZERO ISZERO DUP2 EQ PUSH2 0x104F JUMPI PUSH1 0x0 DUP1 REVERT INVALID LOG2 PUSH5 0x6970667358 0x22 SLT KECCAK256 LOG1 NUMBER PUSH8 0x45056532A166F2EC DUP9 ADDRESS 0x23 0xD0 LT PUSH7 0x294DF85C4397A7 0xE SWAP5 0xD6 EXTCODESIZE BLOCKHASH TSTORE 0xCC BLOBHASH PUSH5 0x736F6C6343 STOP ADDMOD XOR STOP CALLER LOG2 PUSH5 0x6970667358 0x22 SLT KECCAK256 PUSH21 0x7C8C6E228AAAC1553371C4767E20123FFB5B5D0B5D 0xEC 0x4C 0xE0 GT MLOAD 0xAB PUSH11 0xCAC31564736F6C63430008 XOR STOP CALLER "},"methodIdentifiers":{"agentRegistry()":"0d1cfcae","agentToPosts(address,uint256)":"c2fead6d","allPosts(uint256)":"718ce2bc","backend()":"099e4133","contentHashToCoin(bytes32)":"1fd9cf74","createPost(address,bytes32,string)":"3f09de4b","getAgentPosts(address)":"ac61795b","getAllPosts()":"30561100","getCoinByHash(bytes32)":"ae3e88ad","getPostCount()":"bcc95407","setBackend(address)":"da7fc24f","treasury()":"61d027b3","usdcAddress()":"02d45457"}}}}}