{
  "_format": "hh-sol-artifact-1",
  "contractName": "AgentFiVault",
  "sourceName": "contracts/AgentFiVault.sol",
  "abi": [
    {
      "inputs": [
        {
          "internalType": "address",
          "name": "_usdc",
          "type": "address"
        },
        {
          "internalType": "address",
          "name": "_treasury",
          "type": "address"
        },
        {
          "internalType": "address",
          "name": "_backend",
          "type": "address"
        }
      ],
      "stateMutability": "nonpayable",
      "type": "constructor"
    },
    {
      "inputs": [],
      "name": "ReentrancyGuardReentrantCall",
      "type": "error"
    },
    {
      "anonymous": false,
      "inputs": [
        {
          "indexed": true,
          "internalType": "bytes32",
          "name": "postId",
          "type": "bytes32"
        },
        {
          "indexed": true,
          "internalType": "address",
          "name": "creator",
          "type": "address"
        }
      ],
      "name": "PoolCreated",
      "type": "event"
    },
    {
      "anonymous": false,
      "inputs": [
        {
          "indexed": true,
          "internalType": "bytes32",
          "name": "postId",
          "type": "bytes32"
        },
        {
          "indexed": true,
          "internalType": "address",
          "name": "trader",
          "type": "address"
        },
        {
          "indexed": false,
          "internalType": "bool",
          "name": "isBuy",
          "type": "bool"
        },
        {
          "indexed": false,
          "internalType": "uint256",
          "name": "usdcAmount",
          "type": "uint256"
        },
        {
          "indexed": false,
          "internalType": "uint256",
          "name": "tokenAmount",
          "type": "uint256"
        },
        {
          "indexed": false,
          "internalType": "uint256",
          "name": "newPrice",
          "type": "uint256"
        }
      ],
      "name": "Trade",
      "type": "event"
    },
    {
      "inputs": [],
      "name": "BPS",
      "outputs": [
        {
          "internalType": "uint256",
          "name": "",
          "type": "uint256"
        }
      ],
      "stateMutability": "view",
      "type": "function"
    },
    {
      "inputs": [],
      "name": "CREATOR_ALLOC",
      "outputs": [
        {
          "internalType": "uint256",
          "name": "",
          "type": "uint256"
        }
      ],
      "stateMutability": "view",
      "type": "function"
    },
    {
      "inputs": [],
      "name": "CREATOR_FEE_BPS",
      "outputs": [
        {
          "internalType": "uint256",
          "name": "",
          "type": "uint256"
        }
      ],
      "stateMutability": "view",
      "type": "function"
    },
    {
      "inputs": [],
      "name": "FEE_BPS",
      "outputs": [
        {
          "internalType": "uint256",
          "name": "",
          "type": "uint256"
        }
      ],
      "stateMutability": "view",
      "type": "function"
    },
    {
      "inputs": [],
      "name": "INITIAL_TOKEN_RESERVE",
      "outputs": [
        {
          "internalType": "uint256",
          "name": "",
          "type": "uint256"
        }
      ],
      "stateMutability": "view",
      "type": "function"
    },
    {
      "inputs": [],
      "name": "INITIAL_USDC_RESERVE",
      "outputs": [
        {
          "internalType": "uint256",
          "name": "",
          "type": "uint256"
        }
      ],
      "stateMutability": "view",
      "type": "function"
    },
    {
      "inputs": [],
      "name": "PROTOCOL_FEE_BPS",
      "outputs": [
        {
          "internalType": "uint256",
          "name": "",
          "type": "uint256"
        }
      ],
      "stateMutability": "view",
      "type": "function"
    },
    {
      "inputs": [
        {
          "internalType": "uint256",
          "name": "",
          "type": "uint256"
        }
      ],
      "name": "allPools",
      "outputs": [
        {
          "internalType": "bytes32",
          "name": "",
          "type": "bytes32"
        }
      ],
      "stateMutability": "view",
      "type": "function"
    },
    {
      "inputs": [],
      "name": "backend",
      "outputs": [
        {
          "internalType": "address",
          "name": "",
          "type": "address"
        }
      ],
      "stateMutability": "view",
      "type": "function"
    },
    {
      "inputs": [
        {
          "internalType": "bytes32",
          "name": "",
          "type": "bytes32"
        },
        {
          "internalType": "address",
          "name": "",
          "type": "address"
        }
      ],
      "name": "balanceOf",
      "outputs": [
        {
          "internalType": "uint256",
          "name": "",
          "type": "uint256"
        }
      ],
      "stateMutability": "view",
      "type": "function"
    },
    {
      "inputs": [
        {
          "internalType": "bytes32",
          "name": "postId",
          "type": "bytes32"
        },
        {
          "internalType": "uint256",
          "name": "usdcAmount",
          "type": "uint256"
        },
        {
          "internalType": "uint256",
          "name": "minTokensOut",
          "type": "uint256"
        }
      ],
      "name": "buy",
      "outputs": [],
      "stateMutability": "nonpayable",
      "type": "function"
    },
    {
      "inputs": [
        {
          "internalType": "bytes32",
          "name": "postId",
          "type": "bytes32"
        },
        {
          "internalType": "address",
          "name": "creator",
          "type": "address"
        }
      ],
      "name": "createPool",
      "outputs": [],
      "stateMutability": "nonpayable",
      "type": "function"
    },
    {
      "inputs": [
        {
          "internalType": "bytes32",
          "name": "postId",
          "type": "bytes32"
        },
        {
          "internalType": "uint256",
          "name": "usdcAmount",
          "type": "uint256"
        }
      ],
      "name": "getBuyQuote",
      "outputs": [
        {
          "internalType": "uint256",
          "name": "",
          "type": "uint256"
        }
      ],
      "stateMutability": "view",
      "type": "function"
    },
    {
      "inputs": [
        {
          "internalType": "bytes32",
          "name": "postId",
          "type": "bytes32"
        }
      ],
      "name": "getMarketCap",
      "outputs": [
        {
          "internalType": "uint256",
          "name": "",
          "type": "uint256"
        }
      ],
      "stateMutability": "view",
      "type": "function"
    },
    {
      "inputs": [
        {
          "internalType": "bytes32",
          "name": "postId",
          "type": "bytes32"
        }
      ],
      "name": "getPool",
      "outputs": [
        {
          "components": [
            {
              "internalType": "address",
              "name": "creator",
              "type": "address"
            },
            {
              "internalType": "uint256",
              "name": "totalSupply",
              "type": "uint256"
            },
            {
              "internalType": "uint256",
              "name": "virtualUsdcReserve",
              "type": "uint256"
            },
            {
              "internalType": "uint256",
              "name": "virtualTokenReserve",
              "type": "uint256"
            },
            {
              "internalType": "uint256",
              "name": "realUsdcBalance",
              "type": "uint256"
            },
            {
              "internalType": "bool",
              "name": "active",
              "type": "bool"
            }
          ],
          "internalType": "struct AgentFiVault.Pool",
          "name": "",
          "type": "tuple"
        }
      ],
      "stateMutability": "view",
      "type": "function"
    },
    {
      "inputs": [],
      "name": "getPoolCount",
      "outputs": [
        {
          "internalType": "uint256",
          "name": "",
          "type": "uint256"
        }
      ],
      "stateMutability": "view",
      "type": "function"
    },
    {
      "inputs": [
        {
          "internalType": "bytes32",
          "name": "postId",
          "type": "bytes32"
        }
      ],
      "name": "getPrice",
      "outputs": [
        {
          "internalType": "uint256",
          "name": "",
          "type": "uint256"
        }
      ],
      "stateMutability": "view",
      "type": "function"
    },
    {
      "inputs": [
        {
          "internalType": "bytes32",
          "name": "postId",
          "type": "bytes32"
        },
        {
          "internalType": "uint256",
          "name": "tokenAmount",
          "type": "uint256"
        }
      ],
      "name": "getSellQuote",
      "outputs": [
        {
          "internalType": "uint256",
          "name": "",
          "type": "uint256"
        }
      ],
      "stateMutability": "view",
      "type": "function"
    },
    {
      "inputs": [
        {
          "internalType": "bytes32",
          "name": "",
          "type": "bytes32"
        }
      ],
      "name": "holderCount",
      "outputs": [
        {
          "internalType": "uint256",
          "name": "",
          "type": "uint256"
        }
      ],
      "stateMutability": "view",
      "type": "function"
    },
    {
      "inputs": [
        {
          "internalType": "bytes32",
          "name": "",
          "type": "bytes32"
        }
      ],
      "name": "pools",
      "outputs": [
        {
          "internalType": "address",
          "name": "creator",
          "type": "address"
        },
        {
          "internalType": "uint256",
          "name": "totalSupply",
          "type": "uint256"
        },
        {
          "internalType": "uint256",
          "name": "virtualUsdcReserve",
          "type": "uint256"
        },
        {
          "internalType": "uint256",
          "name": "virtualTokenReserve",
          "type": "uint256"
        },
        {
          "internalType": "uint256",
          "name": "realUsdcBalance",
          "type": "uint256"
        },
        {
          "internalType": "bool",
          "name": "active",
          "type": "bool"
        }
      ],
      "stateMutability": "view",
      "type": "function"
    },
    {
      "inputs": [
        {
          "internalType": "bytes32",
          "name": "postId",
          "type": "bytes32"
        },
        {
          "internalType": "uint256",
          "name": "tokenAmount",
          "type": "uint256"
        },
        {
          "internalType": "uint256",
          "name": "minUsdcOut",
          "type": "uint256"
        }
      ],
      "name": "sell",
      "outputs": [],
      "stateMutability": "nonpayable",
      "type": "function"
    },
    {
      "inputs": [
        {
          "internalType": "address",
          "name": "_backend",
          "type": "address"
        }
      ],
      "name": "setBackend",
      "outputs": [],
      "stateMutability": "nonpayable",
      "type": "function"
    },
    {
      "inputs": [
        {
          "internalType": "address",
          "name": "_treasury",
          "type": "address"
        }
      ],
      "name": "setTreasury",
      "outputs": [],
      "stateMutability": "nonpayable",
      "type": "function"
    },
    {
      "inputs": [],
      "name": "treasury",
      "outputs": [
        {
          "internalType": "address",
          "name": "",
          "type": "address"
        }
      ],
      "stateMutability": "view",
      "type": "function"
    },
    {
      "inputs": [],
      "name": "usdc",
      "outputs": [
        {
          "internalType": "contract IERC20",
          "name": "",
          "type": "address"
        }
      ],
      "stateMutability": "view",
      "type": "function"
    }
  ],
  "bytecode": "0x60806040523480156200001157600080fd5b50604051620015dc380380620015dc8339810160408190526200003491620000b8565b60017f9b779b17422d0df92223018b32b4d1fa46e071723d6817e2486d003becc55f0055600080546001600160a01b039485166001600160a01b03199182161790915560018054938516938216939093179092556002805491909316911617905562000102565b80516001600160a01b0381168114620000b357600080fd5b919050565b600080600060608486031215620000ce57600080fd5b620000d9846200009b565b9250620000e9602085016200009b565b9150620000f9604085016200009b565b90509250925092565b6114ca80620001126000396000f3fe608060405234801561001057600080fd5b50600436106101735760003560e01c80639ff2a268116100de578063cc3cbd2a11610097578063f0f4426011610071578063f0f4426014610382578063f6c0092714610395578063fa8631be146103fa578063fc18d0341461041a57600080fd5b8063cc3cbd2a1461035c578063da7fc24f14610364578063e6f019091461037757600080fd5b80639ff2a26814610271578063b5217bb414610282578063be3782281461030e578063bf333f2c14610316578063c20382361461031e578063ca98c43e1461034957600080fd5b806361d027b31161013057806361d027b314610208578063670429841461021b57806379dcad19146102305780637f8f06411461024357806383efd530146102565780638eec5d701461026957600080fd5b8063099e4133146101785780631a36f65a146101a8578063249d39e9146101c657806331d98b3f146101cf5780633e413bee146101e257806341d1de97146101f5575b600080fd5b60025461018b906001600160a01b031681565b6040516001600160a01b0390911681526020015b60405180910390f35b6101b8683635c9adc5dea0000081565b60405190815260200161019f565b6101b861271081565b6101b86101dd3660046112f4565b61042d565b60005461018b906001600160a01b031681565b6101b86102033660046112f4565b61047d565b60015461018b906001600160a01b031681565b61022e610229366004611329565b61049e565b005b6101b861023e3660046112f4565b6106a0565b61022e610251366004611355565b6106e4565b6101b8610264366004611381565b610bb5565b6007546101b8565b6101b869152d02c7e14af680000081565b6102d56102903660046112f4565b60036020819052600091825260409091208054600182015460028301549383015460048401546005909401546001600160a01b03909316949193919290919060ff1686565b604080516001600160a01b03909716875260208701959095529385019290925260608401526080830152151560a082015260c00161019f565b6101b8603281565b6101b860c881565b6101b861032c366004611329565b600460209081526000928352604080842090915290825290205481565b6101b8610357366004611381565b610c34565b6101b8609681565b61022e6103723660046113a3565b610c9e565b6101b86305f5e10081565b61022e6103903660046113a3565b610cea565b6103a86103a33660046112f4565b610d36565b60405161019f919081516001600160a01b031681526020808301519082015260408083015190820152606080830151908201526080808301519082015260a09182015115159181019190915260c00190565b6101b86104083660046112f4565b60056020526000908152604090205481565b61022e610428366004611355565b610de0565b6000818152600360205260408120600581015460ff166104505750600092915050565b6003810154600282015461046c90670de0b6b3a76400006113d4565b61047691906113eb565b9392505050565b6007818154811061048d57600080fd5b600091825260209091200154905081565b6002546001600160a01b031633146104d15760405162461bcd60e51b81526004016104c89061140d565b60405180910390fd5b60008281526003602052604090206005015460ff16156105215760405162461bcd60e51b815260206004820152600b60248201526a506f6f6c2065786973747360a81b60448201526064016104c8565b6001600160a01b0381166105695760405162461bcd60e51b815260206004820152600f60248201526e24b73b30b634b21031b932b0ba37b960891b60448201526064016104c8565b6040805160c0810182526001600160a01b03838116808352683635c9adc5dea0000060208085018281526305f5e10086880190815269152d02c7e14af680000060608801908152600060808901818152600160a08b018181528e845260038089528d85209c518d546001600160a01b0319169c169b909b178c559551908b0155925160028a01559051968801969096555160048088019190915590516005909601805460ff19169615159690961790955593845284832091835292529190912055610634828261120b565b6007805460018101825560009182527fa66cc928b5edb82af9bd49922954155ab7b0942694bea4ce44661d9a8736c688018390556040516001600160a01b0383169184917fa843b0068d872c047023d406f9e5cea249189566b6fe594909f554578e81656d9190a35050565b6000818152600360205260408120600581015460ff166106c35750600092915050565b670de0b6b3a764000081600101546106da8561042d565b61046c91906113d4565b6106ec611282565b6000838152600360205260409020600581015460ff166107405760405162461bcd60e51b815260206004820152600f60248201526e506f6f6c206e6f742061637469766560881b60448201526064016104c8565b6000831161077e5760405162461bcd60e51b815260206004820152600b60248201526a16995c9bc8185b5bdd5b9d60aa1b60448201526064016104c8565b60008481526004602090815260408083203384529091529020548311156107de5760405162461bcd60e51b8152602060048201526014602482015273496e73756666696369656e742062616c616e636560601b60448201526064016104c8565b60008382600301546107f09190611433565b84836002015461080091906113d4565b61080a91906113eb565b9050600081116108485760405162461bcd60e51b8152602060048201526009602482015268151bdbc81cdb585b1b60ba1b60448201526064016104c8565b81600401548111156108955760405162461bcd60e51b8152602060048201526016602482015275496e73756666696369656e74206c697175696469747960501b60448201526064016104c8565b60006127106108a56096846113d4565b6108af91906113eb565b905060006127106108c16032856113d4565b6108cb91906113eb565b90506000816108da8486611446565b6108e49190611446565b90508581101561092a5760405162461bcd60e51b815260206004820152601160248201527014db1a5c1c1859d948195e18d959591959607a1b60448201526064016104c8565b600088815260046020908152604080832033845290915281208054899290610953908490611446565b925050819055508385600201600082825461096e9190611446565b92505081905550868560030160008282546109899190611433565b92505081905550868560010160008282546109a49190611446565b92505081905550838560040160008282546109bf9190611446565b909155505060005460405163a9059cbb60e01b8152336004820152602481018390526001600160a01b039091169063a9059cbb906044016020604051808303816000875af1158015610a15573d6000803e3d6000fd5b505050506040513d601f19601f82011682018060405250810190610a399190611459565b50600054855460405163a9059cbb60e01b81526001600160a01b0391821660048201526024810186905291169063a9059cbb906044016020604051808303816000875af1158015610a8e573d6000803e3d6000fd5b505050506040513d601f19601f82011682018060405250810190610ab29190611459565b5060005460015460405163a9059cbb60e01b81526001600160a01b0391821660048201526024810185905291169063a9059cbb906044016020604051808303816000875af1158015610b08573d6000803e3d6000fd5b505050506040513d601f19601f82011682018060405250810190610b2c9190611459565b5033887fb18113e1c56cce2487087581e76c857611d18d6130ba717df76423af454bdf4c6000848b610b5d8561042d565b604080519415158552602085019390935291830152606082015260800160405180910390a35050505050610bb060017f9b779b17422d0df92223018b32b4d1fa46e071723d6817e2486d003becc55f0055565b505050565b6000828152600360205260408120600581015460ff16610bd9576000915050610c2e565b6000838260030154610beb9190611433565b848360020154610bfb91906113d4565b610c0591906113eb565b9050612710610c1560c882611446565b610c1f90836113d4565b610c2991906113eb565b925050505b92915050565b6000828152600360205260408120600581015460ff16610c58576000915050610c2e565b6000612710610c6860c882611446565b610c7290866113d4565b610c7c91906113eb565b9050808260020154610c8e9190611433565b818360030154610c1f91906113d4565b6002546001600160a01b03163314610cc85760405162461bcd60e51b81526004016104c89061140d565b600280546001600160a01b0319166001600160a01b0392909216919091179055565b6002546001600160a01b03163314610d145760405162461bcd60e51b81526004016104c89061140d565b600180546001600160a01b0319166001600160a01b0392909216919091179055565b610d7a6040518060c0016040528060006001600160a01b03168152602001600081526020016000815260200160008152602001600081526020016000151581525090565b50600090815260036020818152604092839020835160c08101855281546001600160a01b031681526001820154928101929092526002810154938201939093529082015460608201526004820154608082015260059091015460ff16151560a082015290565b610de8611282565b6000838152600360205260409020600581015460ff16610e3c5760405162461bcd60e51b815260206004820152600f60248201526e506f6f6c206e6f742061637469766560881b60448201526064016104c8565b60008311610e7a5760405162461bcd60e51b815260206004820152600b60248201526a16995c9bc8185b5bdd5b9d60aa1b60448201526064016104c8565b6000612710610e8a6096866113d4565b610e9491906113eb565b90506000612710610ea66032876113d4565b610eb091906113eb565b9050600081610ebf8488611446565b610ec99190611446565b90506000818560020154610edd9190611433565b828660030154610eed91906113d4565b610ef791906113eb565b905060008111610f355760405162461bcd60e51b8152602060048201526009602482015268151bdbc81cdb585b1b60ba1b60448201526064016104c8565b85811015610f795760405162461bcd60e51b815260206004820152601160248201527014db1a5c1c1859d948195e18d959591959607a1b60448201526064016104c8565b60028560030154610f8a91906113eb565b811115610fc95760405162461bcd60e51b815260206004820152600d60248201526c42757920746f6f206c6172676560981b60448201526064016104c8565b6000546040516323b872dd60e01b8152336004820152306024820152604481018990526001600160a01b03909116906323b872dd906064016020604051808303816000875af1158015611020573d6000803e3d6000fd5b505050506040513d601f19601f820116820180604052508101906110449190611459565b50600054855460405163a9059cbb60e01b81526001600160a01b0391821660048201526024810187905291169063a9059cbb906044016020604051808303816000875af1158015611099573d6000803e3d6000fd5b505050506040513d601f19601f820116820180604052508101906110bd9190611459565b5060005460015460405163a9059cbb60e01b81526001600160a01b0391821660048201526024810186905291169063a9059cbb906044016020604051808303816000875af1158015611113573d6000803e3d6000fd5b505050506040513d601f19601f820116820180604052508101906111379190611459565b508185600201600082825461114c9190611433565b92505081905550808560030160008282546111679190611446565b92505081905550808560010160008282546111829190611433565b925050819055508185600401600082825461119d9190611433565b90915550506000888152600460209081526040808320338452909152812080548392906111cb908490611433565b909155506111db9050883361120b565b33887fb18113e1c56cce2487087581e76c857611d18d6130ba717df76423af454bdf4c60018a85610b5d8561042d565b60008281526006602090815260408083206001600160a01b038516845290915290205460ff1661127e5760008281526006602090815260408083206001600160a01b03851684528252808320805460ff19166001179055848352600590915281208054916112788361147b565b91905055505b5050565b61128a6112b0565b60027f9b779b17422d0df92223018b32b4d1fa46e071723d6817e2486d003becc55f0055565b7f9b779b17422d0df92223018b32b4d1fa46e071723d6817e2486d003becc55f00546002036112f257604051633ee5aeb560e01b815260040160405180910390fd5b565b60006020828403121561130657600080fd5b5035919050565b80356001600160a01b038116811461132457600080fd5b919050565b6000806040838503121561133c57600080fd5b8235915061134c6020840161130d565b90509250929050565b60008060006060848603121561136a57600080fd5b505081359360208301359350604090920135919050565b6000806040838503121561139457600080fd5b50508035926020909101359150565b6000602082840312156113b557600080fd5b6104768261130d565b634e487b7160e01b600052601160045260246000fd5b8082028115828204841417610c2e57610c2e6113be565b60008261140857634e487b7160e01b600052601260045260246000fd5b500490565b6020808252600c908201526b13db9b1e48189858dad95b9960a21b604082015260600190565b80820180821115610c2e57610c2e6113be565b81810381811115610c2e57610c2e6113be565b60006020828403121561146b57600080fd5b8151801515811461047657600080fd5b60006001820161148d5761148d6113be565b506001019056fea2646970667358221220b7ed342d1909d2f8dc435e637017387131fdff3b272cba39e481d535e07aa75264736f6c63430008180033",
  "linkReferences": {},
  "deployedLinkReferences": {}
}