{
  "_format": "hh-sol-artifact-1",
  "contractName": "AgentRegistry",
  "sourceName": "contracts/AgentRegistry.sol",
  "abi": [
    {
      "inputs": [
        {
          "internalType": "address",
          "name": "_backend",
          "type": "address"
        }
      ],
      "stateMutability": "nonpayable",
      "type": "constructor"
    },
    {
      "anonymous": false,
      "inputs": [
        {
          "indexed": true,
          "internalType": "address",
          "name": "agentWallet",
          "type": "address"
        }
      ],
      "name": "AgentDeactivated",
      "type": "event"
    },
    {
      "anonymous": false,
      "inputs": [
        {
          "indexed": true,
          "internalType": "bytes32",
          "name": "humanId",
          "type": "bytes32"
        },
        {
          "indexed": true,
          "internalType": "address",
          "name": "agentWallet",
          "type": "address"
        },
        {
          "indexed": false,
          "internalType": "string",
          "name": "ensName",
          "type": "string"
        }
      ],
      "name": "AgentRegistered",
      "type": "event"
    },
    {
      "inputs": [
        {
          "internalType": "uint256",
          "name": "",
          "type": "uint256"
        }
      ],
      "name": "agentList",
      "outputs": [
        {
          "internalType": "address",
          "name": "",
          "type": "address"
        }
      ],
      "stateMutability": "view",
      "type": "function"
    },
    {
      "inputs": [
        {
          "internalType": "address",
          "name": "",
          "type": "address"
        }
      ],
      "name": "agentToHuman",
      "outputs": [
        {
          "internalType": "bytes32",
          "name": "",
          "type": "bytes32"
        }
      ],
      "stateMutability": "view",
      "type": "function"
    },
    {
      "inputs": [
        {
          "internalType": "address",
          "name": "",
          "type": "address"
        }
      ],
      "name": "agents",
      "outputs": [
        {
          "internalType": "bytes32",
          "name": "humanId",
          "type": "bytes32"
        },
        {
          "internalType": "string",
          "name": "ensName",
          "type": "string"
        },
        {
          "internalType": "string",
          "name": "templateType",
          "type": "string"
        },
        {
          "internalType": "bool",
          "name": "active",
          "type": "bool"
        },
        {
          "internalType": "uint256",
          "name": "registeredAt",
          "type": "uint256"
        }
      ],
      "stateMutability": "view",
      "type": "function"
    },
    {
      "inputs": [],
      "name": "backend",
      "outputs": [
        {
          "internalType": "address",
          "name": "",
          "type": "address"
        }
      ],
      "stateMutability": "view",
      "type": "function"
    },
    {
      "inputs": [
        {
          "internalType": "address",
          "name": "agentWallet",
          "type": "address"
        }
      ],
      "name": "deactivateAgent",
      "outputs": [],
      "stateMutability": "nonpayable",
      "type": "function"
    },
    {
      "inputs": [
        {
          "internalType": "address",
          "name": "wallet",
          "type": "address"
        }
      ],
      "name": "getAgent",
      "outputs": [
        {
          "components": [
            {
              "internalType": "bytes32",
              "name": "humanId",
              "type": "bytes32"
            },
            {
              "internalType": "string",
              "name": "ensName",
              "type": "string"
            },
            {
              "internalType": "string",
              "name": "templateType",
              "type": "string"
            },
            {
              "internalType": "bool",
              "name": "active",
              "type": "bool"
            },
            {
              "internalType": "uint256",
              "name": "registeredAt",
              "type": "uint256"
            }
          ],
          "internalType": "struct AgentRegistry.AgentData",
          "name": "",
          "type": "tuple"
        }
      ],
      "stateMutability": "view",
      "type": "function"
    },
    {
      "inputs": [],
      "name": "getAgentCount",
      "outputs": [
        {
          "internalType": "uint256",
          "name": "",
          "type": "uint256"
        }
      ],
      "stateMutability": "view",
      "type": "function"
    },
    {
      "inputs": [
        {
          "internalType": "bytes32",
          "name": "",
          "type": "bytes32"
        }
      ],
      "name": "humanToAgent",
      "outputs": [
        {
          "internalType": "address",
          "name": "",
          "type": "address"
        }
      ],
      "stateMutability": "view",
      "type": "function"
    },
    {
      "inputs": [
        {
          "internalType": "address",
          "name": "wallet",
          "type": "address"
        }
      ],
      "name": "isVerifiedAgent",
      "outputs": [
        {
          "internalType": "bool",
          "name": "",
          "type": "bool"
        }
      ],
      "stateMutability": "view",
      "type": "function"
    },
    {
      "inputs": [
        {
          "internalType": "bytes32",
          "name": "humanId",
          "type": "bytes32"
        },
        {
          "internalType": "address",
          "name": "agentWallet",
          "type": "address"
        },
        {
          "internalType": "string",
          "name": "ensName",
          "type": "string"
        },
        {
          "internalType": "string",
          "name": "templateType",
          "type": "string"
        }
      ],
      "name": "registerAgent",
      "outputs": [],
      "stateMutability": "nonpayable",
      "type": "function"
    },
    {
      "inputs": [
        {
          "internalType": "address",
          "name": "_backend",
          "type": "address"
        }
      ],
      "name": "setBackend",
      "outputs": [],
      "stateMutability": "nonpayable",
      "type": "function"
    }
  ],
  "bytecode": "0x608060405234801561001057600080fd5b50604051610d8f380380610d8f83398101604081905261002f91610054565b600080546001600160a01b0319166001600160a01b0392909216919091179055610084565b60006020828403121561006657600080fd5b81516001600160a01b038116811461007d57600080fd5b9392505050565b610cfc806100936000396000f3fe608060405234801561001057600080fd5b50600436106100a95760003560e01c80638fb174ea116100715780638fb174ea1461016f57806391cab63e1461019d578063b0a0a927146101a5578063da7fc24f146101b8578063fb3551ff146101cb578063fd66091e146101eb57600080fd5b8063099e4133146100ae5780632a82e6b8146100de5780632f80c54f1461011e57806377cdbe6d146101315780638b7423bf14610146575b600080fd5b6000546100c1906001600160a01b031681565b6040516001600160a01b0390911681526020015b60405180910390f35b61010e6100ec366004610916565b6001600160a01b03166000908152600360208190526040909120015460ff1690565b60405190151581526020016100d5565b6100c161012c366004610938565b61020f565b61014461013f36600461099a565b610239565b005b6100c1610154366004610938565b6001602052600090815260409020546001600160a01b031681565b61018f61017d366004610916565b60026020526000908152604090205481565b6040519081526020016100d5565b60045461018f565b6101446101b3366004610916565b6104f2565b6101446101c6366004610916565b6105c3565b6101de6101d9366004610916565b61060f565b6040516100d59190610a6a565b6101fe6101f9366004610916565b6107b7565b6040516100d5959493929190610ad0565b6004818154811061021f57600080fd5b6000918252602090912001546001600160a01b0316905081565b6000546001600160a01b0316331461026c5760405162461bcd60e51b815260040161026390610b10565b60405180910390fd5b6000868152600160205260409020546001600160a01b0316156102d15760405162461bcd60e51b815260206004820152601760248201527f48756d616e20616c726561647920686173206167656e740000000000000000006044820152606401610263565b6001600160a01b038516600090815260026020526040902054156103375760405162461bcd60e51b815260206004820152601960248201527f57616c6c657420616c72656164792072656769737465726564000000000000006044820152606401610263565b600086815260016020908152604080832080546001600160a01b0319166001600160a01b038a1690811790915583526002825291829020889055815160a0810183528881528251601f870183900483028101830190935285835291828201918790879081908401838280828437600092019190915250505090825250604080516020601f8601819004810282018101909252848152918101919085908590819084018382808284376000920182905250938552505060016020808501829052426040958601526001600160a01b038b1684526003815293909220845181559284015191830191610428915082610bd7565b506040820151600282019061043d9082610bd7565b50606082015160038201805460ff191691151591909117905560809091015160049182015580546001810182556000919091527f8a35acfbc15ff81a39ae7d344fd709f28e8600b4aa8c65c6b64bfe7fe36bd19b0180546001600160a01b0319166001600160a01b03871690811790915560405187907f186c9e760261cf9d36dfc9a09ca598dbff789d7d4201868118b92d46e56dac80906104e29088908890610c97565b60405180910390a3505050505050565b6000546001600160a01b0316331461051c5760405162461bcd60e51b815260040161026390610b10565b6001600160a01b0381166000908152600360208190526040909120015460ff166105755760405162461bcd60e51b815260206004820152600a6024820152694e6f742061637469766560b01b6044820152606401610263565b6001600160a01b0381166000818152600360208190526040808320909101805460ff19169055517fa58c733780f5c1527d6106ff1e731cbf2e9ffc0eb11ad399ca33ea55f057ddf49190a250565b6000546001600160a01b031633146105ed5760405162461bcd60e51b815260040161026390610b10565b600080546001600160a01b0319166001600160a01b0392909216919091179055565b6106466040518060a00160405280600080191681526020016060815260200160608152602001600015158152602001600081525090565b6001600160a01b038216600090815260036020908152604091829020825160a0810190935280548352600181018054919284019161068390610b4c565b80601f01602080910402602001604051908101604052809291908181526020018280546106af90610b4c565b80156106fc5780601f106106d1576101008083540402835291602001916106fc565b820191906000526020600020905b8154815290600101906020018083116106df57829003601f168201915b5050505050815260200160028201805461071590610b4c565b80601f016020809104026020016040519081016040528092919081815260200182805461074190610b4c565b801561078e5780601f106107635761010080835404028352916020019161078e565b820191906000526020600020905b81548152906001019060200180831161077157829003601f168201915b5050509183525050600382015460ff161515602082015260049091015460409091015292915050565b600360205260009081526040902080546001820180549192916107d990610b4c565b80601f016020809104026020016040519081016040528092919081815260200182805461080590610b4c565b80156108525780601f1061082757610100808354040283529160200191610852565b820191906000526020600020905b81548152906001019060200180831161083557829003601f168201915b50505050509080600201805461086790610b4c565b80601f016020809104026020016040519081016040528092919081815260200182805461089390610b4c565b80156108e05780601f106108b5576101008083540402835291602001916108e0565b820191906000526020600020905b8154815290600101906020018083116108c357829003601f168201915b505050506003830154600490930154919260ff1691905085565b80356001600160a01b038116811461091157600080fd5b919050565b60006020828403121561092857600080fd5b610931826108fa565b9392505050565b60006020828403121561094a57600080fd5b5035919050565b60008083601f84011261096357600080fd5b50813567ffffffffffffffff81111561097b57600080fd5b60208301915083602082850101111561099357600080fd5b9250929050565b600080600080600080608087890312156109b357600080fd5b863595506109c3602088016108fa565b9450604087013567ffffffffffffffff808211156109e057600080fd5b6109ec8a838b01610951565b90965094506060890135915080821115610a0557600080fd5b50610a1289828a01610951565b979a9699509497509295939492505050565b6000815180845260005b81811015610a4a57602081850181015186830182015201610a2e565b506000602082860101526020601f19601f83011685010191505092915050565b60208152815160208201526000602083015160a06040840152610a9060c0840182610a24565b90506040840151601f19848303016060850152610aad8282610a24565b915050606084015115156080840152608084015160a08401528091505092915050565b85815260a060208201526000610ae960a0830187610a24565b8281036040840152610afb8187610a24565b94151560608401525050608001529392505050565b6020808252600c908201526b13db9b1e48189858dad95b9960a21b604082015260600190565b634e487b7160e01b600052604160045260246000fd5b600181811c90821680610b6057607f821691505b602082108103610b8057634e487b7160e01b600052602260045260246000fd5b50919050565b601f821115610bd2576000816000526020600020601f850160051c81016020861015610baf5750805b601f850160051c820191505b81811015610bce57828155600101610bbb565b5050505b505050565b815167ffffffffffffffff811115610bf157610bf1610b36565b610c0581610bff8454610b4c565b84610b86565b602080601f831160018114610c3a5760008415610c225750858301515b600019600386901b1c1916600185901b178555610bce565b600085815260208120601f198616915b82811015610c6957888601518255948401946001909101908401610c4a565b5085821015610c875787850151600019600388901b60f8161c191681555b5050505050600190811b01905550565b60208152816020820152818360408301376000818301604090810191909152601f909201601f1916010191905056fea2646970667358221220a9221907e45f3b3ddc394b4f8b19d6455c778bbf7e9806b5c9c25ad14e0b83e864736f6c63430008180033",
  "linkReferences": {},
  "deployedLinkReferences": {}
}