{
  "_format": "hh-sol-artifact-1",
  "contractName": "PostFactoryV2",
  "sourceName": "contracts/PostFactoryV2.sol",
  "abi": [
    {
      "inputs": [
        {
          "internalType": "address",
          "name": "_treasury",
          "type": "address"
        },
        {
          "internalType": "address",
          "name": "_usdcAddress",
          "type": "address"
        },
        {
          "internalType": "address",
          "name": "_backend",
          "type": "address"
        }
      ],
      "stateMutability": "nonpayable",
      "type": "constructor"
    },
    {
      "anonymous": false,
      "inputs": [
        {
          "indexed": true,
          "internalType": "address",
          "name": "creator",
          "type": "address"
        },
        {
          "indexed": true,
          "internalType": "address",
          "name": "coinAddress",
          "type": "address"
        },
        {
          "indexed": false,
          "internalType": "bytes32",
          "name": "contentHash",
          "type": "bytes32"
        },
        {
          "indexed": false,
          "internalType": "string",
          "name": "ticker",
          "type": "string"
        }
      ],
      "name": "PostCreated",
      "type": "event"
    },
    {
      "inputs": [
        {
          "internalType": "uint256",
          "name": "",
          "type": "uint256"
        }
      ],
      "name": "allPosts",
      "outputs": [
        {
          "internalType": "address",
          "name": "",
          "type": "address"
        }
      ],
      "stateMutability": "view",
      "type": "function"
    },
    {
      "inputs": [],
      "name": "backend",
      "outputs": [
        {
          "internalType": "address",
          "name": "",
          "type": "address"
        }
      ],
      "stateMutability": "view",
      "type": "function"
    },
    {
      "inputs": [
        {
          "internalType": "bytes32",
          "name": "",
          "type": "bytes32"
        }
      ],
      "name": "contentHashToCoin",
      "outputs": [
        {
          "internalType": "address",
          "name": "",
          "type": "address"
        }
      ],
      "stateMutability": "view",
      "type": "function"
    },
    {
      "inputs": [
        {
          "internalType": "address",
          "name": "creator",
          "type": "address"
        },
        {
          "internalType": "bytes32",
          "name": "contentHash",
          "type": "bytes32"
        },
        {
          "internalType": "string",
          "name": "ticker",
          "type": "string"
        }
      ],
      "name": "createPost",
      "outputs": [
        {
          "internalType": "address",
          "name": "coinAddress",
          "type": "address"
        }
      ],
      "stateMutability": "nonpayable",
      "type": "function"
    },
    {
      "inputs": [
        {
          "internalType": "address",
          "name": "",
          "type": "address"
        },
        {
          "internalType": "uint256",
          "name": "",
          "type": "uint256"
        }
      ],
      "name": "creatorToPosts",
      "outputs": [
        {
          "internalType": "address",
          "name": "",
          "type": "address"
        }
      ],
      "stateMutability": "view",
      "type": "function"
    },
    {
      "inputs": [],
      "name": "getAllPosts",
      "outputs": [
        {
          "internalType": "address[]",
          "name": "",
          "type": "address[]"
        }
      ],
      "stateMutability": "view",
      "type": "function"
    },
    {
      "inputs": [
        {
          "internalType": "bytes32",
          "name": "contentHash",
          "type": "bytes32"
        }
      ],
      "name": "getCoinByHash",
      "outputs": [
        {
          "internalType": "address",
          "name": "",
          "type": "address"
        }
      ],
      "stateMutability": "view",
      "type": "function"
    },
    {
      "inputs": [
        {
          "internalType": "address",
          "name": "creator",
          "type": "address"
        }
      ],
      "name": "getCreatorPosts",
      "outputs": [
        {
          "internalType": "address[]",
          "name": "",
          "type": "address[]"
        }
      ],
      "stateMutability": "view",
      "type": "function"
    },
    {
      "inputs": [],
      "name": "getPostCount",
      "outputs": [
        {
          "internalType": "uint256",
          "name": "",
          "type": "uint256"
        }
      ],
      "stateMutability": "view",
      "type": "function"
    },
    {
      "inputs": [
        {
          "internalType": "address",
          "name": "_backend",
          "type": "address"
        }
      ],
      "name": "setBackend",
      "outputs": [],
      "stateMutability": "nonpayable",
      "type": "function"
    },
    {
      "inputs": [],
      "name": "treasury",
      "outputs": [
        {
          "internalType": "address",
          "name": "",
          "type": "address"
        }
      ],
      "stateMutability": "view",
      "type": "function"
    },
    {
      "inputs": [],
      "name": "usdcAddress",
      "outputs": [
        {
          "internalType": "address",
          "name": "",
          "type": "address"
        }
      ],
      "stateMutability": "view",
      "type": "function"
    }
  ],
  "bytecode": "0x608060405234801561001057600080fd5b50604051611e90380380611e9083398101604081905261002f9161008d565b600080546001600160a01b039485166001600160a01b0319918216179091556001805493851693821693909317909255600280549190931691161790556100d0565b80516001600160a01b038116811461008857600080fd5b919050565b6000806000606084860312156100a257600080fd5b6100ab84610071565b92506100b960208501610071565b91506100c760408501610071565b90509250925092565b611db1806100df6000396000f3fe60806040523480156200001157600080fd5b5060043610620000c35760003560e01c806361d027b3116200007a57806361d027b31462000180578063718ce2bc1462000194578063a1a43e0514620001ab578063ae3e88ad14620001c2578063bcc9540714620001ee578063da7fc24f146200020057600080fd5b806302d4545714620000c8578063099e413314620000f95780631fd9cf74146200010d5780633056110014620001395780633f09de4b14620001525780634ddaaca01462000169575b600080fd5b600154620000dc906001600160a01b031681565b6040516001600160a01b0390911681526020015b60405180910390f35b600254620000dc906001600160a01b031681565b620000dc6200011e366004620005e0565b6003602052600090815260409020546001600160a01b031681565b6200014362000219565b604051620000f09190620005fa565b620000dc6200016336600462000666565b6200027d565b620001436200017a366004620006f4565b62000489565b600054620000dc906001600160a01b031681565b620000dc620001a5366004620005e0565b62000501565b620000dc620001bc36600462000719565b6200052c565b620000dc620001d3366004620005e0565b6000908152600360205260409020546001600160a01b031690565b600554604051908152602001620000f0565b6200021762000211366004620006f4565b62000565565b005b606060058054806020026020016040519081016040528092919081815260200182805480156200027357602002820191906000526020600020905b81546001600160a01b0316815260019091019060200180831162000254575b5050505050905090565b6002546000906001600160a01b03163314620002cf5760405162461bcd60e51b815260206004820152600c60248201526b13db9b1e48189858dad95b9960a21b60448201526064015b60405180910390fd5b6000848152600360205260409020546001600160a01b0316156200032f5760405162461bcd60e51b815260206004820152601660248201527510dbdb9d195b9d08185b1c9958591e481c1bdcdd195960521b6044820152606401620002c6565b600154600080546040519192889288926001600160a01b039283169216906200035f908990899060200162000746565b60405160208183030381529060405288886040516200037e90620005d2565b62000390979695949392919062000794565b604051809103906000f080158015620003ad573d6000803e3d6000fd5b50600086815260036020908152604080832080546001600160a01b038087166001600160a01b031992831681179093558c168086526004855283862080546001818101835591885295872090950180548316841790556005805495860181559095527f036b6384b5eca791c62761152d0c79bb0604c104a5fb6f4eb0703f3154bb3db09093018054909316811790925551929450849350917f8ced794f909dcf600c5d428b4a08789faf928a54801da5cbc5d03b34e019f8ae9062000478908990899089906200082d565b60405180910390a350949350505050565b6001600160a01b038116600090815260046020908152604091829020805483518184028101840190945280845260609392830182828015620004f557602002820191906000526020600020905b81546001600160a01b03168152600190910190602001808311620004d6575b50505050509050919050565b600581815481106200051257600080fd5b6000918252602090912001546001600160a01b0316905081565b600460205281600052604060002081815481106200054957600080fd5b6000918252602090912001546001600160a01b03169150829050565b6002546001600160a01b03163314620005b05760405162461bcd60e51b815260206004820152600c60248201526b13db9b1e48189858dad95b9960a21b6044820152606401620002c6565b600280546001600160a01b0319166001600160a01b0392909216919091179055565b611529806200085383390190565b600060208284031215620005f357600080fd5b5035919050565b6020808252825182820181905260009190848201906040850190845b818110156200063d5783516001600160a01b03168352928401929184019160010162000616565b50909695505050505050565b80356001600160a01b03811681146200066157600080fd5b919050565b600080600080606085870312156200067d57600080fd5b620006888562000649565b935060208501359250604085013567ffffffffffffffff80821115620006ad57600080fd5b818701915087601f830112620006c257600080fd5b813581811115620006d257600080fd5b886020828501011115620006e557600080fd5b95989497505060200194505050565b6000602082840312156200070757600080fd5b620007128262000649565b9392505050565b600080604083850312156200072d57600080fd5b620007388362000649565b946020939093013593505050565b68020b3b2b73a23349d160bd1b81528183600983013760009101600901908152919050565b81835281816020850137506000828201602090810191909152601f909101601f19169091010190565b6001600160a01b03888116825260208083018990528782166040840152908616606083015260c0608083018190528551908301819052600091825b82811015620007ed5787810182015185820160e001528101620007cf565b5050600060e08285010152601f19601f8201168301905060e08382030160a08401526200081f60e0820185876200076b565b9a9950505050505050505050565b838152604060208201526000620008496040830184866200076b565b9594505050505056fe60806040523480156200001157600080fd5b506040516200152938038062001529833981016040819052620000349162000187565b81816003620000448382620002c3565b506004620000538282620002c3565b5050600580546001600160a01b03199081166001600160a01b03998a1617909155600696909655505060078054851693861693909317909255600880549093169316929092179055506200038f565b80516001600160a01b0381168114620000ba57600080fd5b919050565b634e487b7160e01b600052604160045260246000fd5b600082601f830112620000e757600080fd5b81516001600160401b0380821115620001045762000104620000bf565b604051601f8301601f19908116603f011681019082821181831017156200012f576200012f620000bf565b81604052838152602092508660208588010111156200014d57600080fd5b600091505b8382101562000171578582018301518183018401529082019062000152565b6000602085830101528094505050505092915050565b60008060008060008060c08789031215620001a157600080fd5b620001ac87620000a2565b955060208701519450620001c360408801620000a2565b9350620001d360608801620000a2565b60808801519093506001600160401b0380821115620001f157600080fd5b620001ff8a838b01620000d5565b935060a08901519150808211156200021657600080fd5b506200022589828a01620000d5565b9150509295509295509295565b600181811c908216806200024757607f821691505b6020821081036200026857634e487b7160e01b600052602260045260246000fd5b50919050565b601f821115620002be576000816000526020600020601f850160051c81016020861015620002995750805b601f850160051c820191505b81811015620002ba57828155600101620002a5565b5050505b505050565b81516001600160401b03811115620002df57620002df620000bf565b620002f781620002f0845462000232565b846200026e565b602080601f8311600181146200032f5760008415620003165750858301515b600019600386901b1c1916600185901b178555620002ba565b600085815260208120601f198616915b8281101562000360578886015182559484019460019091019084016200033f565b50858210156200037f5787850151600019600388901b60f8161c191681555b5050505050600190811b01905550565b61118a806200039f6000396000f3fe608060405234801561001057600080fd5b50600436106101585760003560e01c806390825c28116100c3578063bf333f2c1161007c578063bf333f2c146102be578063cc3cbd2a146102c6578063d642aa02146102ce578063d96a094a146102d6578063dd62ed3e146102eb578063e4849b321461032457600080fd5b806390825c281461027157806395d89b411461027957806398d5fdca14610281578063a3b2587714610289578063a9059cbb14610298578063b390452c146102ab57600080fd5b8063249d39e911610115578063249d39e914610201578063313ce5671461020a5780633e413bee1461021957806361d027b31461022c578063646c2e331461023f57806370a082311461024857600080fd5b806302d05d3f1461015d57806306fdde031461018d5780630812530e146101a2578063095ea7b3146101c357806318160ddd146101e657806323b872dd146101ee575b600080fd5b600554610170906001600160a01b031681565b6040516001600160a01b0390911681526020015b60405180910390f35b610195610337565b6040516101849190610f4a565b6101b56101b0366004610f99565b6103c9565b604051908152602001610184565b6101d66101d1366004610fce565b61048b565b6040519015158152602001610184565b6002546101b5565b6101d66101fc366004610ff8565b6104a5565b6101b561271081565b60405160128152602001610184565b600754610170906001600160a01b031681565b600854610170906001600160a01b031681565b6101b560065481565b6101b5610256366004611034565b6001600160a01b031660009081526020819052604090205490565b6101b56104c9565b6101956104fe565b6101b561050d565b6101b5670de0b6b3a764000081565b6101d66102a6366004610fce565b61054e565b6101b56102b9366004610f99565b61055c565b6101b560c881565b6101b5609681565b6101b5603281565b6102e96102e4366004610f99565b6105ce565b005b6101b56102f9366004611056565b6001600160a01b03918216600090815260016020908152604080832093909416825291909152205490565b6102e9610332366004610f99565b610872565b60606003805461034690611089565b80601f016020809104026020016040519081016040528092919081815260200182805461037290611089565b80156103bf5780601f10610394576101008083540402835291602001916103bf565b820191906000526020600020905b8154815290600101906020018083116103a257829003601f168201915b5050505050905090565b6000806103d560025490565b90508083111561041d5760405162461bcd60e51b815260206004820152600e60248201526d4578636565647320737570706c7960901b60448201526064015b60405180910390fd5b600061042984836110d3565b90506000670de0b6b3a764000061044083806110e6565b61044a85806110e6565b61045491906110d3565b61045e91906110fd565b905061271061046e60c8826110d3565b61047890836110e6565b61048291906110fd565b95945050505050565b600033610499818585610b81565b60019150505b92915050565b6000336104b3858285610b93565b6104be858585610c12565b506001949350505050565b6000670de0b6b3a76400006104dd60025490565b6104e561050d565b6104ef91906110e6565b6104f991906110fd565b905090565b60606004805461034690611089565b60008061051960025490565b90508060000361052b57600191505090565b670de0b6b3a764000061053e82806110e6565b61054891906110fd565b91505090565b600033610499818585610c12565b60008061271061056d60c8826110d3565b61057790856110e6565b61058191906110fd565b9050600061058e60025490565b905060006105a4670de0b6b3a7640000846110e6565b6105ae83806110e6565b6105b8919061111f565b9050816105c482610c71565b61048291906110d3565b6000811161060c5760405162461bcd60e51b815260206004820152600b60248201526a16995c9bc8185b5bdd5b9d60aa1b6044820152606401610414565b60006106178261055c565b9050600081116106555760405162461bcd60e51b8152602060048201526009602482015268151bdbc81cdb585b1b60ba1b6044820152606401610414565b6007546040516323b872dd60e01b8152336004820152306024820152604481018490526001600160a01b03909116906323b872dd906064016020604051808303816000875af11580156106ac573d6000803e3d6000fd5b505050506040513d601f19601f820116820180604052508101906106d09190611132565b5060006127106106e16096856110e6565b6106eb91906110fd565b905060006127106106fd6032866110e6565b61070791906110fd565b60075460055460405163a9059cbb60e01b81526001600160a01b03918216600482015260248101869052929350169063a9059cbb906044016020604051808303816000875af115801561075e573d6000803e3d6000fd5b505050506040513d601f19601f820116820180604052508101906107829190611132565b5060075460085460405163a9059cbb60e01b81526001600160a01b0391821660048201526024810184905291169063a9059cbb906044016020604051808303816000875af11580156107d8573d6000803e3d6000fd5b505050506040513d601f19601f820116820180604052508101906107fc9190611132565b506108073384610cdb565b337f0d6f8407dac4690d12753a73f26a42162a8d8b88471604b5d23b72f5be082cf4858561083361050d565b6040805160808082526003908201526262757960e81b60a08201526020810194909452830191909152606082015260c00160405180910390a250505050565b600081116108b05760405162461bcd60e51b815260206004820152600b60248201526a16995c9bc8185b5bdd5b9d60aa1b6044820152606401610414565b336000908152602081905260409020548111156109065760405162461bcd60e51b8152602060048201526014602482015273496e73756666696369656e742062616c616e636560601b6044820152606401610414565b6000610911826103c9565b90506000811161094f5760405162461bcd60e51b8152602060048201526009602482015268151bdbc81cdb585b1b60ba1b6044820152606401610414565b6109593383610d15565b60006127106109696096846110e6565b61097391906110fd565b905060006127106109856032856110e6565b61098f91906110fd565b905060008161099e84866110d3565b6109a891906110d3565b60075460055460405163a9059cbb60e01b81526001600160a01b03918216600482015260248101879052929350169063a9059cbb906044016020604051808303816000875af11580156109ff573d6000803e3d6000fd5b505050506040513d601f19601f82011682018060405250810190610a239190611132565b5060075460085460405163a9059cbb60e01b81526001600160a01b0391821660048201526024810185905291169063a9059cbb906044016020604051808303816000875af1158015610a79573d6000803e3d6000fd5b505050506040513d601f19601f82011682018060405250810190610a9d9190611132565b5060075460405163a9059cbb60e01b8152336004820152602481018390526001600160a01b039091169063a9059cbb906044016020604051808303816000875af1158015610aef573d6000803e3d6000fd5b505050506040513d601f19601f82011682018060405250810190610b139190611132565b50337f0d6f8407dac4690d12753a73f26a42162a8d8b88471604b5d23b72f5be082cf48587610b4061050d565b604080516080808252600490820152631cd95b1b60e21b60a08201526020810194909452830191909152606082015260c00160405180910390a25050505050565b610b8e8383836001610d4b565b505050565b6001600160a01b03838116600090815260016020908152604080832093861683529290522054600019811015610c0c5781811015610bfd57604051637dc7a0d960e11b81526001600160a01b03841660048201526024810182905260448101839052606401610414565b610c0c84848484036000610d4b565b50505050565b6001600160a01b038316610c3c57604051634b637e8f60e11b815260006004820152602401610414565b6001600160a01b038216610c665760405163ec442f0560e01b815260006004820152602401610414565b610b8e838383610e20565b600081600003610c8357506000919050565b60006002610c9284600161111f565b610c9c91906110fd565b90508291505b81811015610cd557905080600281610cba81866110fd565b610cc4919061111f565b610cce91906110fd565b9050610ca2565b50919050565b6001600160a01b038216610d055760405163ec442f0560e01b815260006004820152602401610414565b610d1160008383610e20565b5050565b6001600160a01b038216610d3f57604051634b637e8f60e11b815260006004820152602401610414565b610d1182600083610e20565b6001600160a01b038416610d755760405163e602df0560e01b815260006004820152602401610414565b6001600160a01b038316610d9f57604051634a1406b160e11b815260006004820152602401610414565b6001600160a01b0380851660009081526001602090815260408083209387168352929052208290558015610c0c57826001600160a01b0316846001600160a01b03167f8c5be1e5ebec7d5bd14f71427d1e84f3dd0314c0f7b2291e5b200ac8c7c3b92584604051610e1291815260200190565b60405180910390a350505050565b6001600160a01b038316610e4b578060026000828254610e40919061111f565b90915550610ebd9050565b6001600160a01b03831660009081526020819052604090205481811015610e9e5760405163391434e360e21b81526001600160a01b03851660048201526024810182905260448101839052606401610414565b6001600160a01b03841660009081526020819052604090209082900390555b6001600160a01b038216610ed957600280548290039055610ef8565b6001600160a01b03821660009081526020819052604090208054820190555b816001600160a01b0316836001600160a01b03167fddf252ad1be2c89b69c2b068fc378daa952ba7f163c4a11628f55a4df523b3ef83604051610f3d91815260200190565b60405180910390a3505050565b60006020808352835180602085015260005b81811015610f7857858101830151858201604001528201610f5c565b506000604082860101526040601f19601f8301168501019250505092915050565b600060208284031215610fab57600080fd5b5035919050565b80356001600160a01b0381168114610fc957600080fd5b919050565b60008060408385031215610fe157600080fd5b610fea83610fb2565b946020939093013593505050565b60008060006060848603121561100d57600080fd5b61101684610fb2565b925061102460208501610fb2565b9150604084013590509250925092565b60006020828403121561104657600080fd5b61104f82610fb2565b9392505050565b6000806040838503121561106957600080fd5b61107283610fb2565b915061108060208401610fb2565b90509250929050565b600181811c9082168061109d57607f821691505b602082108103610cd557634e487b7160e01b600052602260045260246000fd5b634e487b7160e01b600052601160045260246000fd5b8181038181111561049f5761049f6110bd565b808202811582820484141761049f5761049f6110bd565b60008261111a57634e487b7160e01b600052601260045260246000fd5b500490565b8082018082111561049f5761049f6110bd565b60006020828403121561114457600080fd5b8151801515811461104f57600080fdfea2646970667358221220a1436745056532a166f2ec883023d01066294df85c4397a70e94d63b405dcc4964736f6c63430008180033a2646970667358221220a778e6a7d5383dd4da78b0f112b6f865171055a31629dcbebdaa5a96b0e2c5b364736f6c63430008180033",
  "linkReferences": {},
  "deployedLinkReferences": {}
}